:020000040800F2
:1000000000200020DD010008E5010008E9010008EA
:1000100000000000000000000000000000000000E0
:1000200000000000000000000000000005020008C1
:10003000000000000000000009020008A90B0008F1
:100040001502000815020008150200081502000834
:100050001502000815020008150200081502000824
:100060001502000815020008150200081502000814
:100070001502000815020008150200081502000804
:100080001502000891140008000000001502000885
:1000900015020008150200081502000815020008E4
:1000A00015020008150200081502000815020008D4
:1000B0000D09000800000000150200080000000003
:1000C0005FF808F130B583B000F0A8F9314B324A3F
:1000D0001360324A1360324B324A03E011681960F0
:1000E0000433043230498B42F8D32B4B1A682F4B20
:1000F0009A4204D1294B1A682D4B9A4200D0FEE750
:10010000244B2C4A13602C4A13602C4B02E0002233
:100110001A6004332A4A9342F9D3264B1B68002BFA
:1001200003D1254B1B68002B00D0FEE700F07AF9C5
:10013000694601A800F066F9224C234B1C1BA41051
:10014000002504E0AA001F4BD35898470135AC4264
:10015000F8DC1E4C1E4B1C1BA410002504E0AA005A
:100160001A4BD35898470135AC42F8DC00990198F6
:1001700000F07EFD0500174C174B1C1BA41004E07B
:10018000013CA200134BD3589847002CF8DC280000
:1001900000F032F9BABADECA0000002024000020C4
:1001A000000000204C1E0008280000207856341261
:1001B000325476982800002090000020280000206B
:1001C000940000204002000840020008400200089D
:1001D00040020008400200084002000810B5FFF786
:1001E00071FFC04600BEFEE704207146084202D0FF
:1001F000EFF3098001E0EFF308807146044A1047ED
:1002000000BEFEE700BEFEE700BEFEE7704700004E
:080210000102000800BEFEE738
:100218004C1E000800000020280000204C1E00088A
:1002280000000000000000002800002094000020CA
:080238000000000000000000BE
:1002400070B505000C000D4B98420CD00C4B984239
:1002500009D00C4B984206D00B4B984203D00B4967
:100260000B4800F0D7F80B4B9C4203D90A490848C9
:1002700000F0D0F8E405E40D2C8570BD0038014095
:100280000044004000480040004C0040950300003E
:10029000D81D0008FF0100009603000010B5041EE1
:1002A000094B9C420CD0094B984209D0084B98420C
:1002B00006D0084B984203D00749084800F0AAF836
:1002C000A08CC005C00D10BD0038014000440040A6
:1002D00000480040004C0040A6030000D81D000864
:1002E00070B505000C00304B98420CD02F4B984253
:1002F00009D02F4B984206D02E4B984203D02E495E
:100300002E4800F087F884235B009C422AD02C4BB7
:100310009C4227D02B4B9C4224D02B4B9C4221D07B
:100320002A4B9C421ED02A4B9C421BD0294B9C42FC
:1003300018D0294B9C4215D0284B9C4212D0284BF8
:100340009C420FD0274B9C420CD0274B9C4209D09B
:10035000264B9C4206D0264B9C4203D02549174889
:1003600000F058F82112FF23194023401A000123FE
:100370009340012902D12A68134006E0022902D1E4
:100380006A68134001E0AA681340240C0122A240CD
:10039000E9690A40002B03D0002A03D1002002E0C3
:1003A000002000E0012070BD003801400044004002
:1003B00000480040004C0040E6070000D81D00083F
:1003C00007010700060106000501050004010400FD
:1003D000060208000A0309000003030000030200EC
:1003E000000301001A010B001B010C000E0111009B
:1003F00016031400E7070000FEE7C04610B5012011
:10040000FFF7FAFF01230360014B0B607047C04602
:100410000400002010B5FFF7F1FFC04610B500F052
:100420005DF810BD10B500F08BF810BD82B0002350
:1004300001930093264A1368802149020B431360FD
:10044000234B1A6880239B0213400093019B0133C6
:100450000193009B002B04D1019AA023DB019A4257
:10046000EED11B4B1B689B0302D50123009301E0D7
:1004700000230093009B012B28D11122154B1A60F9
:10048000134B5A685A605A685A605968124A0A40AF
:100490005A605A68882149030A435A601A688021C1
:1004A00049040A431A600A4B1B689B01FBD5084BA1
:1004B0005A6803218A435A60596802220A435A60E3
:1004C000034B5B680C221340082BF9D102B0704734
:1004D0000010024000200240FF7FC0FF10B5124B09
:1004E0001A6801210A431A605868104A02405A608B
:1004F00018680F4A02401A6018680E4A02401A60D3
:1005000058680D4A02405A60DA6A0F208243DA6264
:10051000186B0A4A02401A635A6B8A435A630022D4
:100520009A60FFF783FF10BD001002400CB8FF086F
:10053000FFFFF6FEFFFFFBFFFFFFC0FFACFEFFFF6C
:1005400010B51F4B5B680C221340042B07D0082BFF
:1005500009D0002B23D11B4A1B4B1A6022E0194AF9
:10056000194B1A601EE0164B5C685A68A40C0F20E9
:1005700004400234C0235B021A4204D113484443AE
:10058000114B1C600EE00E4BDB6A0F21194001314C
:100590000C4800F09BFF44430B4B1C6002E0094AEF
:1005A000094B1A60064B5B681B090F221340084A6F
:1005B000D35CDBB2044A1168D940116010BDC0465B
:1005C0000010024000127A001C00002000093D00CB
:1005D0000C00002000220B4B1A600B4B5A69802143
:1005E000C9020A435A61996901220A439A61074B79
:1005F0001968074A0A401A60DA68AA2109020A4300
:10060000DA607047480000200010024000040048F3
:10061000FF00FFFF10B50A48018A0909028A520942
:10062000038A9B09008AC409012001404900024055
:100630000A435200034013435B002040184310BD9F
:1006400000040048F8B55F4656464D464446F0B4AF
:100650005748028A120901210D001540038A5B09DF
:100660000E001E40048AA4090F002740BB46008AE2
:10067000C00901408A464F4FB846BF8AB946802715
:10068000BF00BC464F4661464F4041468F82002D19
:1006900007D0002E05D05946002902D05146002926
:1006A0007FD11A43230013430343DB0779D500228C
:1006B000414B1A60002D0CD0002E0AD0072000F00C
:1006C00059FDC822D2003D4B1A60002000F0F2F81C
:1006D00064E0002E0DD05B46002B0AD0052000F010
:1006E00049FD96225201354B1A60002000F0E2F8D5
:1006F00054E05346002B0DD05B46002B0AD003205C
:1007000000F038FDFA2252012C4B1A60002000F054
:10071000D1F843E05346002B0CD0002D0AD0012025
:1007200000F028FDAF229201244B1A60002000F057
:10073000C1F833E0002D09D0002000F01BFD00229D
:100740001E4B1A60002000F0B5F827E0002E0AD0FA
:10075000062000F00FFDC8221201184B1A6000207D
:1007600000F0A8F81AE05B46002B0AD0042000F045
:1007700001FDC8225201114B1A60002000F09AF8C6
:100780000CE05346002B09D0022000F0F3FC962227
:1007900092010A4B1A60002000F08CF80122084BED
:1007A0001A603CBC90469946A246AB46F8BDC0468E
:1007B00000040048000800486000002048000020B5
:1007C00038000020F8B501000023214A1360214AB7
:1007D0001360214A1360214A1360214A546980251D
:1007E000AD022C435461D0692843D0611D4C236075
:1007F0009023DB051A688027BF053A431A601D68FD
:100800008026360635431D60D8683843D860DA68DC
:100810003243DA605A6A8020400402435A625A6ABC
:100820008020400502435A6222682023134323603C
:100830002368042293432360236804329343236094
:10084000094B186800F042FE80B2A081F8BDC04696
:100850005C000020500000206000002038000020D4
:1008600000100240004400401C00002010B50E4B58
:10087000196804220A431A60196808220A431A6098
:10088000196801220A431A60084980235B050B603E
:10089000074B1A78C724A4000859FF2398439201F4
:1008A000134003430B5110BD0044004000E100E041
:1008B00020000020012805D10123064A1360064AC2
:1008C000136006E0002804D10023024A1360024AA4
:1008D000136070475C0000205000002010B581B20A
:1008E0000348FFF7ADFC024BDB695B06FBD510BD8F
:1008F0000044004070B505000024285DFFF7EEFFBE
:1009000001342B5D002BF8D170BDC04670B584B0AA
:10091000802149058023754AD15075497548FFF7F4
:10092000DFFC002800D1DEE0734C25787148FFF72A
:10093000B5FC724B58552378042B00D0B9E0704AAF
:10094000918AFD33FF334B4093826C4B1B78012B14
:100950002FD1FFF75FFE6B4A13881BB21B129BB2AD
:10096000DCB2128892B2D1B2012601AD2E700028FD
:1009700003D1F02501A8457001E001AD6870002C9D
:1009800003D1FF2001AB987001E001A8837000291A
:1009900005D101ABFF22DA70FD3A1A7103E001AB19
:1009A000DA7001221A7101A800234371FFF7A2FF38
:1009B0007FE0022B0AD10023534A1360534A13608D
:1009C000534A13600020FFF775FF72E0032B13D129
:1009D0004E4B1B68002B6CD1484A50780223D356EB
:1009E000FF210B4000021843D17800B200F07AFAE0
:1009F0000122474B1A605CE0042B06D10120FFF76F
:100A000059FF0122434B1A6053E0052B0BD13F4B9A
:100A10001B68002B4DD1394B5878C82849D8997894
:100A200000F092F945E0062B17D1384B1B68002BDC
:100A30003FD1324B9B78012B05D100F06BFB01229B
:100A4000334B1A6035E0002B33D12C4B587800F033
:100A500091FB01222E4B1A602BE0072B02D100F0F4
:100A6000D7F926E0082B16D1284B1B68002B20D184
:100A7000224948780223CB56FF2213400002184334
:100A80000B79FE3A1A40C97800B200F0CFF9204B3A
:100A900001221A600DE0092B0BD1184B5B785BB279
:100AA000012B03D101221B4B1A6002E00022194BDB
:100AB0001A60114B1B78032B03D900220E4B1A70BE
:100AC00002E001330C4A1370084980235B050B6078
:100AD000114B1A78C724A4000859FF2398439201A8
:100AE000134003430B5104B070BDC04600E100E069
:100AF00005010500004400402D0000206800002092
:100B000000080048320000205C0000205000002057
:100B100038000020600000202000002010B5134B9A
:100B20001868FA21890000F0D1FC0138104B984276
:100B30000DD8104A506010490B6A1B021B0AC020D6
:100B4000000603430B6200239360073313600A4AD5
:100B5000136A1B021B0A8021C9050B431362002381
:100B6000064A1360064A136010BDC0461C000020F0
:100B7000FFFFFF0010E000E000ED00E05400002067
:100B800040000020044B186000E030BF024B1B689F
:100B9000002BFAD17047C04654000020014B18606A
:100BA0007047C0464000002010B5074B1B68002B63
:100BB00003D0054A1368013B1360044B1B68002BEC
:100BC00000D0984710BDC0465400002040000020CF
:100BD000074A13685B0013609023DB051B8ADB0761
:100BE00003D5116801230B431360014B1B68704749
:100BF0008C0000200D4A5369802109030B43536187
:100C00000B4B1A68A021C9020A431A609988094A45
:100C1000114099809868084908409860D868014058
:100C2000D960998A0A409A827047C04600100240F3
:100C300000080048FFFCFFFFFFFFF0FF0A4A53696E
:100C4000802189020B4353619022D205136803214E
:100C50008B431360054B9A688A439A60D9680222D5
:100C60000A43DA607047C04600100240000800489E
:100C700010B586B000242C4B1C6001230593019312
:100C8000FFF74CFFFFF7B6FFFFF7D8FF2748FFF746
:100C900085FFFFF79FFCE1204002FFF793FD00F086
:100CA0003DFB234B1A68C0218A431A60D968802211
:100CB0000A43DA6002AB02211970FF225A709A705F
:100CC000DA7019715C7100F025FA1A48FFF75AFFC3
:100CD00007E0174B1B8A1B0703D5FFF7C7FD00234F
:100CE0000593059B002BF4D119E0134B1B68012BD6
:100CF00005D1124B1B68002B01D0FFF7A3FC104B52
:100D00001B68002B08D002A8FFF7F4FD0D4A918A5A
:100D100080235B004B4093828020FFF733FF019BD1
:100D2000002BE2D106B010BD8C000020D10B0008D2
:100D300000040048983A00005C0000206000002099
:100D4000380000200008004810B500290AD10E4BD9
:100D50009C8A8022120122439A829C8A0B4A22405A
:100D60009A8209E0084B9C8A094A22409A829C8A0E
:100D70008022520122439A82C9B2064B197080B276
:100D8000054B188010BDC04600080048FFEFFFFF6C
:100D9000FFF7FFFF4F00002034000020C8235B0155
:100DA000984203DDC8220E4B1A8018E080B20D4B2A
:100DB000C3189BB20C4A934203D86422084B1A8092
:100DC0000DE00A4B9C46604480B2094B984203D820
:100DD0003222034B1A8002E01422014B1A80704722
:100DE000340000207FF3FFFF7F0C0000BFF9FFFFFE
:100DF0003F060000054B998A802212010A439A821D
:100E0000998A802252010A439A827047000800485A
:100E100010B5054A1388002111801BB2312B01DC6B
:100E2000FFF7E8FF10BDC0463400002010B50023D6
:100E3000254C2380254C2380D2B2254B1A701B7879
:100E4000002B0AD1234B9C8A8022120122439A82D2
:100E50009C8A214A22409A8209E01E4B9C8A1F4AA2
:100E600022409A829C8A8022520122439A82C82977
:100E700003D9C822144B1A8002E089B2124B1980A0
:100E80000022174B1A7015E0114B1B78002B08D16C
:100E90000E4B1B881BB283420CDB0122104B1A70D5
:100EA00008E00A4B1B881BB25B42834202DB012233
:100EB0000B4B1A700A4B1B78002BE5D00022024B1B
:100EC0001A80FFF7A5FF10BD340000206400002049
:100ED0004F00002000080048FFEFFFFFFFF7FFFF73
:100EE0004E00002070B505000023504A1380504A80
:100EF0001380C9B24F4B19701B78002B0AD14E4B8F
:100F0000998A802212010A439A82998A4B4A0A409E
:100F10009A8209E0484B998A494A0A409A82998AFA
:100F2000802252010A439A822800FFF737FFEC0F14
:100F300064196410A4B20022424B1A80424B1A700A
:100F40006AE03C4B1B78002B32D13E4B1B8822B20F
:100F50001BB29A4219DC354B1B881BB21E2B0EDDCF
:100F60000022384B1A8024B26410A4B22F4A13888E
:100F70001BB2D90FCB185B109BB2138005E0002287
:100F8000304B1A801432294B1A80280000F0C4FE1E
:100F90002E4A2F4B00F010FC00F088FE244B1B88DB
:100FA00000B21BB2984237DC0122274B1A7033E0A3
:100FB000244B1B881BB25B4222B2934219DB1B4BB2
:100FC0001B881BB21E2B0EDD00221E4B1A8024B282
:100FD000E30F1C196410A4B2144A13881BB25B10EF
:100FE0009BB2138005E00022164B1A8014320F4B7F
:100FF0001A800F4B1E8836B27642280000F08CFE15
:10100000124A134B00F0D8FB00F050FE00B28642AB
:1010100002DB01220C4B1A700B4B1B78002B90D07B
:101020000022024B1A80FFF7E5FE70BD340000205D
:10103000640000204F00002000080048FFEFFFFF81
:10104000FFF7FFFF3C0000204E000020CDCCCCCCB1
:10105000CCCCEC3F244A5369802189020B43536175
:101060009023DB0519688020800001431960196A0C
:101070008020C002014319625369802109030B4398
:1010800053611A4B19688020C00301431960196825
:101090008020400401431960988A8021090101439E
:1010A0009982988A124901409982D3698021490026
:1010B0000B43D3610F4B0020188018831884198BC1
:1010C00068220A4392B21A83198C0122114389B211
:1010D0001984012119859621C900D962586319889C
:1010E0000A4392B21A80704700100240000800487C
:1010F000FFEFFFFF0020004010B5642806D8044C25
:10110000E36A5843642100F0E1F9606310BDC04612
:101110000020004000B583B0134B1B8A5B0709D445
:10112000124A918A80235B004B4093820022104B2D
:101130001A8017E001226B46DA7100211420FFF7B4
:1011400003FE0AE0084B1B8A5B0706D4FFF760FE2C
:1011500000236A46D371064A13806B4607331B7817
:10116000002BEFD103B000BD000C00480008004880
:101170003200002010B5C823DB0043439BB2154A60
:101180001288072825D8134A128819B212B2914240
:101190000ADD104C228810B20B000F49CA1A8218BF
:1011A000208800B21B1A09E00A490A8812B21BB251
:1011B000D21A098808B20849091A5B189A4204DD54
:1011C00018B20021FFF78EFE03E010B20121FFF7F5
:1011D00089FE10BD32000020FF31000026494B6916
:1011E0008022120313434B61244B1A688020800134
:1011F00002431A601A688020000202431A60CA691A
:1012000002231343CB611E4B00221A831A841A81D6
:101210001A80188B0222FF3202431A831889032294
:10122000024392B21A81174ADA62174A5A62188840
:101230000122104380B21880C86910230343CB6198
:10124000124B2F2119851249D9629989114389B20C
:10125000998119880A4392B21A800E4A80239B0210
:101260001360C421890050580B4B03408020C001FB
:10127000034353507047C046001002400008004826
:1012800000040040FFFF0000FF7F0000001000404E
:101290007C92000000E100E0FF00FFFF10B51C4B56
:1012A0005A698021C9020A435A61996980208000E5
:1012B00001439961174A14680321214311609A6917
:1012C00002439A61144B0021D960DA6880208001C2
:1012D0000243DA609A6A8020400002439A62996071
:1012E0009A68802109060A439A600B4B9B68002B81
:1012F000FBDB094A916801230B439360064B1B6893
:10130000DB07FBD5044A916804230B43936010BDAF
:1013100000100240000400480024014010B50022E3
:101320000B4B1A80FFF796FEFFF758FFFFF7B6FF4B
:10133000084A5369802149030B435361064B1A68DD
:101340000C218A431A60D96804220A43DA6010BD6E
:101350003200002000100240000C004810B53E4B47
:101360001B78002B09D13D4B1B883D4A12885B003E
:101370009B1A9BB23B4A138008E0384B1B88384AC3
:1013800012885B00D3189BB2364A1380364A138802
:1013900033490888C3189BB21380344A13880888DD
:1013A000C3189BB21380324A13880988CB189BB2AA
:1013B000138013881BB2002B06DA1388C821890119
:1013C0008C4663449BB21380294C208800B2C8210C
:1013D000890100F0EBF989B22180264B1B78214A64
:1013E0001288254908885343C3189BB20B800B8889
:1013F0001BB2224A934202DD01320A8007E01E4BF3
:101400001B881BB2002B02DC00221B4B1A801C4BDA
:101410001878144B1B88184A12885843101800B2C9
:10142000401180B203B2632B02DC002B03DC01E02D
:10143000642000E00020C4B22000FFF75DFE114BE5
:101440001C70114B1B685B0704D50F4B1B6CDBB288
:101450000E4A137010BDC0464F000020340000201B
:101460003000002058000020640000203C000020D4
:1014700032000020220000204C0000207F0C0000E1
:1014800021000020660000200024014044000020CC
:1014900010B5094A536A09498C4663449BB208490E
:1014A0000B80084B5362FFF759FF074A138A01214B
:1014B0008B43138210BDC046000400400180FFFF33
:1014C00030000020FF7F0000001000400022430891
:1014D0008B4274D303098B425FD3030A8B4244D3FC
:1014E000030B8B4228D3030C8B420DD3FF2209023E
:1014F00012BA030C8B4202D31212090265D0030BFD
:101500008B4219D300E0090AC30B8B4201D3CB03F2
:10151000C01A5241830B8B4201D38B03C01A524134
:10152000430B8B4201D34B03C01A5241030B8B4236
:1015300001D30B03C01A5241C30A8B4201D3CB0221
:10154000C01A5241830A8B4201D38B02C01A524106
:10155000430A8B4201D34B02C01A5241030A8B4209
:1015600001D30B02C01A5241CDD2C3098B4201D321
:10157000CB01C01A524183098B4201D38B01C01A9F
:10158000524143098B4201D34B01C01A5241030916
:101590008B4201D30B01C01A5241C3088B4201D3C5
:1015A000CB00C01A524183088B4201D38B00C01A72
:1015B000524143088B4201D34B00C01A5241411A99
:1015C00000D20146524110467047FFE701B50020A6
:1015D00000F0F0F802BDC0460029F7D076E770476A
:1015E00003460B437FD4002243088B4274D3030984
:1015F0008B425FD3030A8B4244D3030B8B4228D325
:10160000030C8B420DD3FF22090212BA030C8B424A
:1016100002D31212090265D0030B8B4219D300E0EA
:10162000090AC30B8B4201D3CB03C01A5241830B6F
:101630008B4201D38B03C01A5241430B8B4201D31F
:101640004B03C01A5241030B8B4201D30B03C01A48
:101650005241C30A8B4201D3CB02C01A5241830AC2
:101660008B4201D38B02C01A5241430A8B4201D3F1
:101670004B02C01A5241030A8B4201D30B02C01A1B
:101680005241CDD2C3098B4201D3CB01C01A524182
:1016900083098B4201D38B01C01A524143098B420B
:1016A00001D34B01C01A524103098B4201D30B01F4
:1016B000C01A5241C3088B4201D3CB00C01A524119
:1016C00083088B4201D38B00C01A524143088B42DE
:1016D00001D34B00C01A5241411A00D20146524177
:1016E000104670475DE0CA0F00D04942031000D396
:1016F0004042534000229C4603098B422DD3030AEB
:101700008B4212D3FC22890112BA030A8B420CD3FA
:10171000890192118B4208D3890192118B4204D323
:1017200089013AD0921100E08909C3098B4201D3A3
:10173000CB01C01A524183098B4201D38B01C01ADD
:10174000524143098B4201D34B01C01A5241030954
:101750008B4201D30B01C01A5241C3088B4201D303
:10176000CB00C01A524183088B4201D38B00C01AB0
:101770005241D9D243088B4201D34B00C01A524187
:10178000411A00D20146634652415B10104601D314
:101790004042002B00D54942704763465B1000D39E
:1017A000404201B5002000F005F802BD0029F8D044
:1017B00016E770477047C046F0B55F4656464D463F
:1017C0004446F0B40D0399464E002B0B87B007003A
:1017D000924680469B46760DCC0F002E69D06D4B0D
:1017E0009E4235D05B468022DD001204430F134336
:1017F0002B439B46C3009846674B00279C4600231B
:10180000664401934A4615035000D20F53462D0BF0
:10181000400D914600D176E05E4A90426CD0802225
:101820005B0F120413435C4AED0094461D4353467C
:101830000022DB00604449463618701C614002906B
:1018400017430F2F00D9AFE05448BF00C759BF4618
:101850005B461F4300D088E000239B469846023336
:1018600008270193CEE74946022A6AD0032A00D10D
:1018700009E2012A00D0BBE111400022002300252B
:101880009046CCB200212D030A0D12052D0B1543F5
:10189000434A1B0515401D436D00E4076D082543B1
:1018A0004046290007B03CBC90469946A246AB464C
:1018B000F0BD034352D05B46002B00D18AE158466D
:1018C00000F06CFA03000B3B1C2B00DD7BE11D22BA
:1018D000D31A3A0001005D46DA4008398D40130002
:1018E0008F402B439B46B8462E4B00279C46002337
:1018F00060444642019385E752462A432CD1002595
:101900000023022297E752462A4321D0002D00D11E
:1019100054E1280000F042FA03000B3B1C2B00DDD1
:1019200046E11D21CB1A51460200D9405346083AE0
:10193000954093400D431B4A944660444042002228
:1019400079E7012400220C40124B0025904699E7CC
:101950000025002301226EE703226CE700239B464B
:1019600098460133042701934CE703230C27019386
:1019700048E700238025984600242D03054B81E786
:101980005D464346019A6FE75D4643462100019A52
:101990006AE7C046FF07000001FCFFFF0C1E0008BD
:1019A000FFFF0F80F30300004246120C91461A0C11
:1019B0009446424617044A461B041B0C5A43604691
:1019C00090464A4642431000039262461C003F0C78
:1019D0007A437C4342440192220C9246019A52443B
:1019E000904506D98246802040028046C244504637
:1019F0000390100C049048462404240C120412197D
:101A000005922A0C2D042D0C68432C008246484672
:101A10007C4350438146200C8046574357444744FB
:101A2000BA4503D9802040028046C144380C3F04A7
:101A3000B84648442404240C01900498A04440442F
:101A400004905846000C814658460404200C8246F7
:101A5000070048465F434C46434360466043644644
:101A6000834650464443380C8446E4186444A342F9
:101A700003D980235B029C46E34448463F04230C81
:101A80003F0C2404E419574668436F4384464D468F
:101A9000504655434243380C814662444A445B44B5
:101AA000944503D9802040028446654403983F044E
:101AB000834604983F0C8446E344C345804140423A
:101AC0008246100484460198674484466744A344D0
:101AD000BC46A345A4419946D44464428742BF41D1
:101AE000D4458041E144A04699459B417F42404214
:101AF000C8440743120CBA18A045A4415F423B00FA
:101B000064422343D71843467D19DB0D6D021D4304
:101B10005B465A02059B1A43531E9A415B46DB0DF6
:101B20001A4343465B021343EA0107D501225C08CE
:101B300013402343EA07029E13436D08574AB21825
:101B4000002A4BDD580709D00F201840042805D083
:101B5000181D98429B415B42ED180300E80104D533
:101B60004F4A15408022D200B2184E48824200DD12
:101B7000E7E60124DB08680718436D025305804639
:101B80002D0B5B0D0C407DE680225946120311425D
:101B900008D0154206D115432D0398462D0B4C460F
:101BA000414B6FE65D4615432D032D0B3E4B69E619
:101BB00003005546283B9D400023BCE6504600F0FC
:101BC000EDF82030A8E60300283B9F400023BB46E9
:101BD000984689E600F0E2F8203073E60124A61A60
:101BE000382E07DD00220C4000230025904649E6F0
:101BF000029EA3E71F2E20DC20222C001800921B3F
:101C0000F040944093400443581E83411C43F540E8
:101C1000630709D00F232340042B05D023001C1D8C
:101C20009C4292415242AD182B021FD50124002242
:101C30000C4001230025904624E61F202C00404242
:101C4000821AD440202E1CD04022961BB5402B4334
:101C5000581E83410720234318400025002809D03F
:101C60000F2200251A401C00042AD8D1230068073F
:101C70006D022D0B0124DB08034398460C40002322
:101C800000E60025E3E780220124120315432D031B
:101C900098462D0B0C40044BF4E5C046FF030000B2
:101CA000FFFFFFFEFE070000FF0700000B0330B53B
:101CB000134D1A0B4B005B0DC90F0024AB4211DD15
:101CC000104CA34210DC8024640322430E4CE41A1F
:101CD0001F2C0CDD0D48C31ADA4013005C420029AA
:101CE00000D11C00200030BD094BCC18FAE7E040C1
:101CF000084CA44663449A4013000343EEE7C046F1
:101D0000FE0300001D040000330400001304000063
:101D1000FFFFFF7FEDFBFFFF70B5002830D0C3173A
:101D2000C4185C40C50F200000F038F8174B184A63
:101D30001B1AD21A1F2A18DD164AD21A9440002202
:101D400024035B05240B5B0D0021100024030A0D06
:101D50001205240B1443104A1B0514401C43640055
:101D6000ED0764082C43210070BD210091400A005A
:101D70000B21081AC4405B052403240B5B0DE3E729
:101D80000025002300240022DEE7C0461E040000D8
:101D90003304000013040000FFFF0F801C21012307
:101DA0001B04984201D3000C10391B0A984201D33E
:101DB000000A08391B09984201D30009043902A21C
:101DC000105C40187047C046040302020101010183
:101DD00000000000000000002E2E2F737973746540
:101DE0006D2F7372632F73746D333266302D73747D
:101DF000647065726970682F73746D333266307801
:101E0000785F75736172742E63000000A819000872
:101E1000681800086818000866180008801900088B
:101E20008019000872190008661800088019000857
:101E3000721900088019000866180008881900083F
:0C1E40008819000888190008881B000899
:101E4C00785634122C000020000000000000000026
:101E5C00000000000102030406070809006CDC0204
:081E6C00020101FF32547698D7
:04000005080000C52A
:00000001FF
