:020000040800F2
:1000000000200020DD010008E5010008E9010008EA
:1000100000000000000000000000000000000000E0
:1000200000000000000000000000000005020008C1
:100030000000000000000000090200082D0D00086B
:100040001502000815020008150200081502000834
:100050001502000815020008150200081502000824
:100060001502000815020008150200081502000814
:100070001502000815020008150200081502000804
:1000800015020008C913000800000000150200084E
:1000900015020008150200081502000815020008E4
:1000A00015020008150200081502000815020008D4
:1000B000350C0008000000001502000800000000D8
:1000C0005FF808F130B583B000F0A8F9314B324A3F
:1000D0001360324A1360324B324A03E011681960F0
:1000E0000433043230498B42F8D32B4B1A682F4B20
:1000F0009A4204D1294B1A682D4B9A4200D0FEE750
:10010000244B2C4A13602C4A13602C4B02E0002233
:100110001A6004332A4A9342F9D3264B1B68002BFA
:1001200003D1254B1B68002B00D0FEE700F07AF9C5
:10013000694601A800F066F9224C234B1C1BA41051
:10014000002504E0AA001F4BD35898470135AC4264
:10015000F8DC1E4C1E4B1C1BA410002504E0AA005A
:100160001A4BD35898470135AC42F8DC00990198F6
:1001700000F040FE0500174C174B1C1BA41004E0B8
:10018000013CA200134BD3589847002CF8DC280000
:1001900000F032F9BABADECA0000002024000020C4
:1001A0000000002050150008280000207856341266
:1001B0003254769828000020840000202800002077
:1001C00088000020400200084002000840020008A9
:1001D00040020008400200084002000810B5FFF786
:1001E00071FFC04600BEFEE704207146084202D0FF
:1001F000EFF3098001E0EFF308807146044A1047ED
:1002000000BEFEE700BEFEE700BEFEE7704700004E
:080210000102000800BEFEE738
:100218005015000800000020280000205015000894
:1002280000000000000000002800002088000020D6
:080238000000000000000000BE
:1002400070B505000C000D4B98420CD00C4B984239
:1002500009D00C4B984206D00B4B984203D00B4967
:100260000B4800F0D7F80B4B9C4203D90A490848C9
:1002700000F0D0F8E405E40D2C8570BD0038014095
:100280000044004000480040004C0040950300003E
:100290001C150008FF0100009603000010B5041EA5
:1002A000094B9C420CD0094B984209D0084B98420C
:1002B00006D0084B984203D00749084800F0AAF836
:1002C000A08CC005C00D10BD0038014000440040A6
:1002D00000480040004C0040A60300001C15000828
:1002E00070B505000C00304B98420CD02F4B984253
:1002F00009D02F4B984206D02E4B984203D02E495E
:100300002E4800F087F884235B009C422AD02C4BB7
:100310009C4227D02B4B9C4224D02B4B9C4221D07B
:100320002A4B9C421ED02A4B9C421BD0294B9C42FC
:1003300018D0294B9C4215D0284B9C4212D0284BF8
:100340009C420FD0274B9C420CD0274B9C4209D09B
:10035000264B9C4206D0264B9C4203D02549174889
:1003600000F058F82112FF23194023401A000123FE
:100370009340012902D12A68134006E0022902D1E4
:100380006A68134001E0AA681340240C0122A240CD
:10039000E9690A40002B03D0002A03D1002002E0C3
:1003A000002000E0012070BD003801400044004002
:1003B00000480040004C0040E60700001C15000803
:1003C00007010700060106000501050004010400FD
:1003D000060208000A0309000003030000030200EC
:1003E000000301001A010B001B010C000E0111009B
:1003F00016031400E7070000FEE7C04610B5012011
:10040000FFF7FAFF01230360014B0B607047C04602
:100410000400002010B5FFF7F1FFC04610B500F052
:100420005DF810BD10B500F08BF810BD82B0002350
:1004300001930093264A1368802149020B431360FD
:10044000234B1A6880239B0213400093019B0133C6
:100450000193009B002B04D1019AA023DB019A4257
:10046000EED11B4B1B689B0302D50123009301E0D7
:1004700000230093009B012B28D11122154B1A60F9
:10048000134B5A685A605A685A605968124A0A40AF
:100490005A605A68882149030A435A601A688021C1
:1004A00049040A431A600A4B1B689B01FBD5084BA1
:1004B0005A6803218A435A60596802220A435A60E3
:1004C000034B5B680C221340082BF9D102B0704734
:1004D0000010024000200240FF7FC0FF10B5124B09
:1004E0001A6801210A431A605868104A02405A608B
:1004F00018680F4A02401A6018680E4A02401A60D3
:1005000058680D4A02405A60DA6A0F208243DA6264
:10051000186B0A4A02401A635A6B8A435A630022D4
:100520009A60FFF783FF10BD001002400CB8FF086F
:10053000FFFFF6FEFFFFFBFFFFFFC0FFACFEFFFF6C
:1005400010B51F4B5B680C221340042B07D0082BFF
:1005500009D0002B23D11B4A1B4B1A6022E0194AF9
:10056000194B1A601EE0164B5C685A68A40C0F20E9
:1005700004400234C0235B021A4204D113484443AE
:10058000114B1C600EE00E4BDB6A0F21194001314C
:100590000C4800F037FF44430B4B1C6002E0094A53
:1005A000094B1A60064B5B681B090F221340084A6F
:1005B000D35CDBB2044A1168D940116010BDC0465B
:1005C0000010024000127A001C00002000093D00CB
:1005D0000C00002000220B4B1A600B4B5A69802143
:1005E000C9020A435A61996901220A439A61074B79
:1005F0001968074A0A401A60DA68AA2109020A4300
:10060000DA607047440000200010024000040048F7
:10061000FF00FFFF10B50A48018A0909028A520942
:10062000038A9B09008AC409012001404900024055
:100630000A435200034013435B002040184310BD9F
:100640000004004870B5BC490B8A1B0901242340F3
:100650000A8A52092240088A80092040098AC90969
:100660002140B64DAE8A8024A4007440AC82002B99
:100670004FD0002A4DD0B24B1B68002B05D1002172
:10068000C820C00000F020FC3EE0C822D200934207
:100690003AD0C8221201934205D10121C820C000DE
:1006A00000F012FC30E096225201934205D1012164
:1006B000C820000100F008FC26E0C8225201934245
:1006C00005D101219620400100F0FEFB1CE0FA223A
:1006D0005201934205D10021C820400100F0F4FBF3
:1006E00012E096229201934205D10021962040010A
:1006F00000F0EAFB08E0AF229201934204D100210E
:10070000C820000100F0E0FBC822D2008C4B1A6028
:100710002EE2002A4FD000284DD0894B1B68002BB9
:1007200005D100219620400100F0CEFB3EE0C8221A
:10073000D200934205D10021C820000100F0C4FB83
:1007400034E0C8221201934205D10021C820C00024
:1007500000F0BAFB2AE096225201934226D0C8222A
:100760005201934205D10121C820C00000F0ACFB2A
:100770001CE0FA225201934205D10121C820000158
:1007800000F0A2FB12E096229201934205D10121D2
:100790009620400100F098FB08E0AF2292019342BE
:1007A00004D10021C820400100F08EFB96225201A6
:1007B000634B1A60DCE100294FD000284DD0604B1C
:1007C0001B68002B05D101219620800000F07CFBE6
:1007D0003EE0C822D200934205D10021C82040014A
:1007E00000F072FB34E0C8221201934205D10021CF
:1007F0009620400100F068FB2AE0962252019342C5
:1008000005D10021C820000100F05EFB20E0C822D5
:100810005201934205D10021C820C00000F054FBD2
:1008200016E0FA225201934212D09622920193428C
:1008300005D10121C820C00000F046FB08E0AF222E
:100840009201934204D10121C820000100F03CFB39
:10085000FA2252013A4B1A608AE100294AD0002B51
:1008600048D0374B1B68002B05D10121C820C000A0
:1008700000F02AFB39E0C822D200934205D10121C1
:10088000C820000100F020FB2FE0C8221201934293
:1008900005D101219620400100F016FB25E09622AB
:1008A0005201934205D10021C820400100F00CFB09
:1008B0001BE0C8225201934205D10021962040013D
:1008C00000F002FB11E0FA225201934205D100210F
:1008D000C820000100F0F8FA07E096229201934246
:1008E00003D10021C82000F0EFFAAF229201144B8F
:1008F0001A603DE1002B4FD0114B1B68002B47D0F5
:10090000C822D200934204D10121100000F0DCFA89
:100910003EE0C8221201934204D10121100000F0F0
:10092000D3FA35E09622520193420BD101211000F7
:1009300000F0CAFA2CE0C046000400480008004855
:1009400044000020C8225201934204D1002110002B
:1009500000F0BAFA1CE0FA225201934205D10021BC
:100960009620400100F0B0FA12E0962292019342E4
:1009700005D10021C820400100F0A6FA08E0AF220E
:100980009201934204D10021C820C00000F09CFADB
:100990000022784B1A60EBE0002A4CD0754B1B68A4
:1009A000002B05D10021C820000100F08DFA3DE0A8
:1009B000C822D200934204D10021100000F084FA32
:1009C00034E0C8221201934230D096225201934261
:1009D00005D10121C820C00000F076FA26E0C82227
:1009E0005201934205D10121C820000100F06CFAA8
:1009F0001CE0FA225201934205D1012196204001C8
:100A000000F062FA12E096229201934205D1002191
:100A1000C820400100F058FA08E0AF22920193424A
:100A200004D100219620400100F04EFAC8221201A4
:100A3000504B1A609CE000284CD04E4B1B68002B9A
:100A400005D10021C820400100F03EFA3DE0C82257
:100A5000D200934205D100219620400100F034FAE3
:100A600033E0C8221201934204D10021100000F0AB
:100A70002BFA2AE096225201934205D10021C82088
:100A8000C00000F021FA20E0C822520193421CD09D
:100A9000FA225201934205D10121C820C00000F082
:100AA00013FA12E096229201934205D10121C82047
:100AB000000100F009FA08E0AF229201934204D14C
:100AC00001219620400100F0FFF9C8225201294B74
:100AD0001A604DE000294BD0264B1B68002B05D136
:100AE0000121C820000100F0EFF93DE0C822D2004A
:100AF000934205D101219620400100F0E5F933E051
:100B0000C8221201934205D10021C820400100F003
:100B1000DBF929E096225201934204D10021100012
:100B200000F0D2F920E0C8225201934205D1002101
:100B3000C820000100F0C8F916E0FA2252019342E1
:100B400005D10021C820C00000F0BEF90CE09622BB
:100B50009201934208D0AF229201934204D1012125
:100B6000C820C00000F0B0F996229201014B1A6033
:100B700070BDC0464400002070B501000025224B26
:100B80001D60224B58698024A40220435861DA6911
:100B90002243DA611E4C25609023DB051A68802011
:100BA000800502431A601A688020000602431A601A
:100BB0005A6A8020400402435A625A6A80256D05B1
:100BC0002A435A62226820231343236022680423A5
:100BD0001343236022680823134323602268012300
:100BE000134323600B4B186800F00CFC80B2A0810B
:100BF000094B1D60C72080001A58FF218A437F39A6
:100C00000A431A5070BDC0467C000020001002400C
:100C1000004400401C00002000E100E010B581B25B
:100C20000348FFF70DFB024BDB695B06FBD510BDEC
:100C30000044004070B515491548FFF751FB0028E6
:100C400023D0144C25781248FFF728FB124B585537
:100C50002378032B08D1104B1B785BB2012B03D1F7
:100C6000FFF7D8FCFFF7DAFF0A4B1B78032B03D101
:100C70000022084B1A7008E00849888A80229200F6
:100C800042408A820133034A137070BD050105009A
:100C9000004400402D0000205800002000080048BB
:100CA00010B5134B1868FA21890000F0ABFB01382E
:100CB000104B98420DD8104A506010490B6A1B0225
:100CC0001B0AC020000603430B6200239360073316
:100CD00013600A4A136A1B021B0A8021C9050B43D1
:100CE00013620023064A1360064A136010BDC04613
:100CF0001C000020FFFFFF0010E000E000ED00E01E
:100D00004C0000203C000020044B186000E030BF85
:100D1000024B1B68002BFAD17047C0464C000020E4
:100D2000014B18607047C0463C00002010B5074BCF
:100D30001B68002B03D0054A1368013B1360044B6A
:100D40001B68002B00D0984710BDC0464C00002007
:100D50003C000020074A13685B0013609023DB050A
:100D60001B8ADB0703D5116801230B431360014B7A
:100D70001B687047800000200D4A536980210903D9
:100D80000B4353610B4B1A68A021C9020A431A6036
:100D90009988094A114099809868084908409860E4
:100DA000D8680140D960998A0A409A827047C04643
:100DB0000010024000080048FFFCFFFFFFFFF0FFAB
:100DC0000A4A5369802189020B4353619022D2055C
:100DD000136803218B431360054B9A688A439A601A
:100DE000D96802220A43DA607047C0460010024008
:100DF0000008004810B50022124B1A60FFF750FFA0
:100E0000FFF7BAFFFFF7DCFF0F48FFF789FFFFF797
:100E1000E1FB00F053FA96208001FFF7ADFE0B4B8B
:100E20001B68012B05D1FFF70DFCFA208000FFF7AE
:100E30006BFF8023DB055A6A054B1A608020FFF7A1
:100E400063FFECE780000020550D00087C000020C7
:100E500030000020C8235B01984203DDC8220E4BFE
:100E60001A8018E080B20D4BC3189BB20C4A934213
:100E700003D86422084B1A800DE00A4B9C4660445C
:100E800080B2094B984203D83222034B1A8002E009
:100E90001422014B1A807047360000207FF3FFFFB9
:100EA0007F0C0000BFF9FFFF3F060000054B998A49
:100EB000802212010A439A82998A802252010A43AF
:100EC0009A8270470008004870B504000D000026A3
:100ED000724B1E80FA204000FFF716FF704B1E80F9
:100EE000EDB2704B1D701B78002B0AD16E4B998AA6
:100EF000802212010A439A82998A6C4A0A409A8295
:100F000009E0694B998A6A4A0A409A82998A802242
:100F100052010A439A822000FFF79CFFE30F1B193E
:100F20005B109BB20021634A1180634A117056E046
:100F30005C4A1278002A28D15E4A128819B212B28D
:100F4000914219DC554A128812B21E2A0EDD002188
:100F5000584A11801BB25B109BB250490A8812B2EA
:100F6000D00F8218521092B20A8005E00021514A37
:100F700011801431494A1180494A128812B29442B0
:100F80002DDC01214C4A117029E04A4A128812B224
:100F9000524219B28A4219DB404A128812B21E2A02
:100FA0000EDD0021434A11801BB2DA0FD3185B100B
:100FB0009BB23A490A8812B2521092B20A8005E0F6
:100FC00000213C4A11801431344A1180344A12887D
:100FD00012B25242A24202DB0121374A1170364A54
:100FE0001278002AA4D000222C4B1A80FFF75EFF53
:100FF000FA208000FFF788FE2A4B1B78002B13D1C4
:101000000122284B1A70284DAA8A294B1340AB8223
:101010000120FFF779FEAA8A80235B011343AB828C
:1010200005221E4B1A8012E000221E4B1A701E4D24
:10103000AA8A80231B011343AB820120FFF764FEC1
:10104000AA8A1A4B1340AB820522144B1A80002245
:10105000194B1A7015E0134B1B78012B08D1104B5C
:101060001B881BB29C420CDB0122134B1A7008E058
:101070000B4B1B881BB25B42A34202DC01220E4BCE
:101080001A700D4B1B78012BE5D10023044A138005
:10109000024A1380FFF70AFF70BDC04636000020E9
:1010A000520000204B00002000080048FFEFFFFF27
:1010B000FFF7FFFF380000204A000020244A536950
:1010C000802189020B4353619023DB05196880203E
:1010D000800001431960196A8020C002014319622F
:1010E0005369802109030B4353611A4B196880200F
:1010F000C00301431960196880204004014319604E
:10110000988A8021090101439982988A12490140F5
:101110009982D369802149000B43D3610F4B002092
:10112000188018831884198B68220A4392B21A8394
:10113000198C0122114389B2198401211985962144
:10114000C900D962586319880A4392B21A8070475D
:101150000010024000080048FFEFFFFF00200040A1
:1011600010B5642806D8044CE36A5843642100F0A3
:1011700049F9606310BDC0460020004026494B6914
:101180008022120313434B61244B1A688020800194
:1011900002431A601A688020000202431A60CA697A
:1011A00002231343CB611E4B00221A831A841A8137
:1011B0001A80188B0222FF3202431A8318890322F5
:1011C000024392B21A81174ADA62174A5A621888A1
:1011D0000122104380B21880C86910230343CB61F9
:1011E000124B2F2119851249D9629989114389B26D
:1011F000998119880A4392B21A800E4A80239B0271
:101200001360C421890050580B4B03408020C0015B
:10121000034353507047C046001002400008004886
:1012200000040040FFFF0000FF7F000000100040AE
:101230007C92000000E100E0FF00FFFF10B51C4BB6
:101240005A698021C9020A435A6199698020800045
:1012500001439961174A14680321214311609A6977
:1012600002439A61144B0021D960DA688020800122
:101270000243DA609A6A8020400002439A629960D1
:101280009A68802109060A439A600B4B9B68002BE1
:10129000FBDB094A916801230B439360064B1B68F3
:1012A000DB07FBD5044A916804230B43936010BD10
:1012B00000100240000400480024014010B5FFF770
:1012C000FDFEFFF75BFFFFF7B9FF10BD10B5314B17
:1012D0001B78002B09D1304B1B88304A12885B00E9
:1012E0009B1A9BB22E4A138008E02B4B1B882B4A7B
:1012F00012885B00D3189BB2294A1380294A1388AD
:1013000026490888C3189BB21380274A1388098886
:10131000CB189BB21380254B1B78214A1288244995
:1013200008885343C3189BB20B800B881BB2214A19
:10133000934202DD01320A8007E01D4B1B881BB27D
:10134000002B02DC00221A4B1A801B4B1878144B1E
:101350001B88174A12885843101800B2401180B2F7
:1013600003B2632B02DC002B03DC01E0642000E00D
:101370000020C4B22000FFF7F3FE104B1C70104B8E
:101380001B685B0704D50E4B1B6CDBB20D4A137058
:1013900010BDC0464B000020360000203400002065
:1013A00050000020520000203800002021000020C2
:1013B000480000207F0C0000200000205400002086
:1013C000002401404000002010B5094A536A094931
:1013D0008C4663449BB208490B80084B5362FFF76D
:1013E00075FF074A138A01218B43138210BDC04643
:1013F000000400400180FFFF34000020FF7F000058
:1014000000100040002243088B4274D303098B4232
:101410005FD3030A8B4244D3030B8B4228D3030CC4
:101420008B420DD3FF22090212BA030C8B4202D366
:101430001212090265D0030B8B4219D300E0090A8E
:10144000C30B8B4201D3CB03C01A5241830B8B4297
:1014500001D38B03C01A5241430B8B4201D34B0380
:10146000C01A5241030B8B4201D30B03C01A5241E5
:10147000C30A8B4201D3CB02C01A5241830A8B426A
:1014800001D38B02C01A5241430A8B4201D34B0253
:10149000C01A5241030A8B4201D30B02C01A5241B7
:1014A000CDD2C3098B4201D3CB01C01A524183096B
:1014B0008B4201D38B01C01A524143098B4201D3A5
:1014C0004B01C01A524103098B4201D30B01C01AD0
:1014D0005241C3088B4201D3CB00C01A524183084A
:1014E0008B4201D38B00C01A524143088B4201D377
:1014F0004B00C01A5241411A00D2014652411046D7
:101500007047FFE701B5002000F006F802BDC046B5
:101510000029F7D076E770477047C0462E2E2F730C
:10152000797374656D2F7372632F73746D333266C4
:10153000302D7374647065726970682F73746D33C5
:1015400032663078785F75736172742E63000000C4
:10155000785634122C00002000000000000000002B
:10156000000000000102030406070809006CDC0209
:081570000101FFFF32547698DF
:04000005080000C52A
:00000001FF
