:020000040800F2
:1000000000200020DD010008E5010008E9010008EA
:1000100000000000000000000000000000000000E0
:1000200000000000000000000000000005020008C1
:10003000000000000000000009020008DD070008C1
:100040001502000815020008150200081502000834
:100050001502000815020008150200081502000824
:100060001502000815020008150200081502000814
:100070001502000815020008150200081502000804
:1000800015020008B90E0008000000001502000863
:1000900015020008150200081502000815020008E4
:1000A00015020008150200081502000815020008D4
:1000B00015060008000000001502000800000000FE
:1000C0005FF808F130B583B000F07AF9314B324A6D
:1000D0001360324A1360324B324A03E011681960F0
:1000E0000433043230498B42F8D32B4B1A682F4B20
:1000F0009A4204D1294B1A682D4B9A4200D0FEE750
:10010000244B2C4A13602C4A13602C4B02E0002233
:100110001A6004332A4A9342F9D3264B1B68002BFA
:1001200003D1254B1B68002B00D0FEE700F04CF9F3
:10013000694601A800F038F9224C234B1C1BA4107F
:10014000002504E0AA001F4BD35898470135AC4264
:10015000F8DC1E4C1E4B1C1BA410002504E0AA005A
:100160001A4BD35898470135AC42F8DC00990198F6
:1001700000F098FB0500174C174B1C1BA41004E063
:10018000013CA200134BD3589847002CF8DC280000
:1001900000F004F9BABADECA0000002024000020F2
:1001A000000000204010000828000020785634127B
:1001B0003254769828000020840000202800002077
:1001C00088000020400200084002000840020008A9
:1001D00040020008400200084002000810B5FFF786
:1001E00071FFC04600BEFEE704207146084202D0FF
:1001F000EFF3098001E0EFF308807146044A1047ED
:1002000000BEFEE700BEFEE700BEFEE7704700004E
:080210000102000800BEFEE738
:1002180040100008000000202800002040100008BE
:1002280000000000000000002800002088000020D6
:080238000000000000000000BE
:1002400010B5041E094B9C420CD0094B984209D0B2
:10025000084B984206D0084B984203D007490848FB
:1002600000F0AAF8A08CC005C00D10BD00380140F8
:100270000044004000480040004C0040A60300003D
:100280000C10000870B505000C00304B98420CD0E3
:100290002F4B984209D02F4B984206D02E4B9842B4
:1002A00003D02E492E4800F087F884235B009C423F
:1002B0002AD02C4B9C4227D02B4B9C4224D02B4B3A
:1002C0009C4221D02A4B9C421ED02A4B9C421BD0E0
:1002D000294B9C4218D0294B9C4215D0284B9C425C
:1002E00012D0284B9C420FD0274B9C420CD0274B5E
:1002F0009C4209D0264B9C4206D0264B9C4203D000
:100300002549174800F058F82112FF2319402340CF
:100310001A0001239340012902D12A68134006E004
:10032000022902D16A68134001E0AA681340240C34
:100330000122A240E9690A40002B03D0002A03D120
:10034000002002E0002000E0012070BD00380140E4
:100350000044004000480040004C0040E607000018
:100360000C10000807010700060106000501050042
:1003700004010400060208000A0309000003030048
:1003800000030200000301001A010B001B010C0016
:100390000E01110016031400E7070000FEE7C04637
:1003A00010B50120FFF7FAFF01230360014B0B603A
:1003B0007047C0460400002010B5FFF7F1FFC046AB
:1003C00010B500F05DF810BD10B500F08BF810BD51
:1003D00082B0002301930093264A136880214902CA
:1003E0000B431360234B1A6880239B021340009336
:1003F000019B01330193009B002B04D1019AA023A0
:10040000DB019A42EED11B4B1B689B0302D50123F3
:10041000009301E000230093009B012B28D11122BF
:10042000154B1A60134B5A685A605A685A605968DB
:10043000124A0A405A605A68882149030A435A609E
:100440001A68802149040A431A600A4B1B689B0101
:10045000FBD5084B5A6803218A435A605968022227
:100460000A435A60034B5B680C221340082BF9D1F6
:1004700002B070470010024000200240FF7FC0FF22
:1004800010B5124B1A6801210A431A605868104AC5
:1004900002405A6018680F4A02401A6018680E4AF3
:1004A00002401A6058680D4A02405A60DA6A0F200A
:1004B0008243DA62186B0A4A02401A635A6B8A4313
:1004C0005A6300229A60FFF783FF10BD00100240BC
:1004D0000CB8FF08FFFFF6FEFFFFFBFFFFFFC0FFAA
:1004E000ACFEFFFF10B51F4B5B680C221340042BC2
:1004F00007D0082B09D0002B23D11B4A1B4B1A60B5
:1005000022E0194A194B1A601EE0164B5C685A68C3
:10051000A40C0F2004400234C0235B021A4204D111
:1005200013484443114B1C600EE00E4BDB6A0F2155
:10053000194001310C4800F0DDFC44430B4B1C60BA
:1005400002E0094A094B1A60064B5B681B090F223F
:100550001340084AD35CDBB2044A1168D9401160E9
:1005600010BDC0460010024000127A001C0000209E
:1005700000093D000C00002070B50100214B5869B6
:100580008024A40220435861DA692243DA611E4CB8
:10059000002323609023DB051A6880208005024336
:1005A0001A601A688020000602431A605A6A802086
:1005B000400402435A625A6A80256D052A435A62F2
:1005C00022682023134323602268042313432360FB
:1005D0002268082313432360226801231343236006
:1005E0000A4B186800F086FC80B2A081084B1D60A1
:1005F000C72080001A58FF218A437F390A431A50C6
:1006000070BDC04600100240004400401C000020A5
:1006100000E100E070B549494948FFF733FE002882
:1006200000D189E0474C25784548FFF709FE464B45
:1006300058552378012B6ED14449888A8022920034
:1006400042408A82404A1278612A14D0622A18D025
:10065000632A1CD0642A20D0652A24D0782A28D086
:10066000792A2BD07A2A2ED0732A31D10124002066
:100670000026002530E0002400200026C825AD011A
:100680002AE0002400200026C8256D0124E0002473
:1006900000200026C8252D011EE000240020002691
:1006A000C825ED0018E0002400200026C825AD0074
:1006B00012E000246420012600250DE000243220F1
:1006C0000126002508E0002419200126002503E06A
:1006D00000240020002600251B4A5278302A03D02F
:1006E000312A03D1012102E0002100E00021002C89
:1006F00002D000F059F90EE0002E04D0012B02D1F7
:1007000000F0F2F807E02AB2002A04DD012B02D142
:10071000100000F057F90B4B1B78012B03D100227E
:10072000084B1A7008E00949888A802292004240EA
:100730008A820133034A137070BDC046050105006B
:10074000004400402D000020580000200008004810
:1007500010B5134B1868FA21890000F0CBFB013863
:10076000104B98420DD8104A506010490B6A1B027A
:100770001B0AC020000603430B620023936007336B
:1007800013600A4A136A1B021B0A8021C9050B4326
:1007900013620023064A1360064A136010BDC04668
:1007A0001C000020FFFFFF0010E000E000ED00E073
:1007B0004C0000203C000020044B186000E030BFDB
:1007C000024B1B68002BFAD17047C0464C0000203A
:1007D000014B18607047C0463C00002010B5074B25
:1007E0001B68002B03D0054A1368013B1360044BC0
:1007F0001B68002B00D0984710BDC0464C0000205D
:100800003C000020074A13685B0013609023DB055F
:100810001B8ADB0703D5116801230B431360014BCF
:100820001B687047800000200D4A5369802109032E
:100830000B4353610B4B1A68A021C9020A431A608B
:100840009988094A11409980986808490840986039
:10085000D8680140D960998A0A409A827047C04698
:100860000010024000080048FFFCFFFFFFFFF0FF00
:100870000A4A5369802189020B4353619022D205B1
:10088000136803218B431360054B9A688A439A606F
:10089000D96802220A43DA607047C046001002405D
:1008A0000008004810B500220C4B1A60FFF750FFFB
:1008B000FFF7BAFFFFF7DCFF0948FFF789FF00F0F9
:1008C00075FA96208001FFF757FE8023DB055A6AF0
:1008D000044B1A608020FFF76FFFF6E780000020CE
:1008E000050800083000002010B500290AD10E4A82
:1008F000948A102323439BB29382938A2024A34398
:10090000938209E0084A938A1024A3439382948A2D
:10091000202323439BB29382C9B2044B197080B247
:10092000034B188010BDC046000800484B00002053
:1009300036000020C8235B01984203DDC8220E4B1D
:100940001A8018E080B20D4BC3189BB20C4A934238
:1009500003D86422084B1A800DE00A4B9C46604481
:1009600080B2094B984203D83222034B1A8002E02E
:100970001422014B1A807047360000207FF3FFFFDE
:100980007F0C0000BFF9FFFF3F060000054A918A77
:1009900010230B439BB29382918A20230B439BB27B
:1009A000938270470008004810B5054A138800215B
:1009B00011801BB2312B01DCFFF7E8FF10BDC046F0
:1009C0003600002070B504000D000026724B1E801A
:1009D000FA204000FFF7F0FE704B1E80EDB2704B26
:1009E0001D701B78002B0AD16E4A918A10230B438D
:1009F0009BB29382938A20218B43938209E0694AB8
:100A0000938A10218B439382918A20230B439BB2BC
:100A100093822000FFF78EFFE30F1B195B109BB240
:100A20000021614A1180614A117056E05C4A1278D7
:100A3000002A28D15C4A128819B212B2914219DCFC
:100A4000554A128812B21E2A0EDD0021564A118024
:100A50001BB25B109BB250490A8812B2D00F8218A9
:100A6000521092B20A8005E000214F4A11801431E1
:100A7000494A1180494A128812B294422DDC012160
:100A80004A4A117029E0484A128812B2524219B2F9
:100A90008A4219DB404A128812B21E2A0EDD00215A
:100AA000414A11801BB2DA0FD3185B109BB23A494E
:100AB0000A8812B2521092B20A8005E000213A4A26
:100AC00011801431344A1180344A128812B25242D1
:100AD000A24202DB0121354A1170344A1278002A01
:100AE000A4D000222C4B1A80FFF750FFFA20800080
:100AF000FFF762FE2A4B1B78002B13D10122284BF3
:100B00001A70284DAB8A0F329343AB820120FFF756
:100B100053FEAA8A202313439BB2AB8205221E4BAD
:100B20001A8012E000221E4B1A701E4DAA8A102352
:100B300013439BB2AB820120FFF73EFEAB8A20221B
:100B40009343AB821B3A144B1A800022174B1A7046
:100B500015E0134B1B78012B08D1104B1B881BB2DF
:100B60009C420CDB0122114B1A7008E00B4B1B88D6
:100B70001BB25B42A34202DC01220C4B1A700B4BEE
:100B80001B78012BE5D10023044A1380024A13800D
:100B9000FFF7FCFE70BDC04636000020520000206A
:100BA0004B00002000080048380000204A000020C8
:100BB00010B5244A5369802189020B435361902365
:100BC000DB0519688020800001431960196A8020C4
:100BD000C002014319625369802109030B43536129
:100BE000194B19688020400001431960196880245E
:100BF000E400214319609C8A1021214389B2998223
:100C0000998A2024A1439982D3690343D3610F4B6E
:100C10000020188018831884198B68220A4392B226
:100C20001A83198C0122114389B219840121198573
:100C30009621C900D962586319880A4392B21A8072
:100C400010BDC046001002400008004800200040CF
:100C500010B5642806D8044CE36A5843642100F0B8
:100C600049F9606310BDC0460020004026494B6929
:100C70008022120313434B61244B1A6880208001A9
:100C800002431A601A688020000202431A60CA698F
:100C900002231343CB611E4B00221A831A841A814C
:100CA0001A80188B0222FF3202431A83188903220A
:100CB000024392B21A81174ADA62174A5A621888B6
:100CC0000122104380B21880C86910230343CB610E
:100CD000124B2F2119851249D9629989114389B282
:100CE000998119880A4392B21A800E4A80239B0286
:100CF0001360C421890050580B4B03408020C00171
:100D0000034353507047C04600100240000800489B
:100D100000040040FFFF0000FF7F000000100040C3
:100D20007C92000000E100E0FF00FFFF10B51C4BCB
:100D30005A698021C9020A435A619969802080005A
:100D400001439961174A14680321214311609A698C
:100D500002439A61144B0021D960DA688020800137
:100D60000243DA609A6A8020400002439A629960E6
:100D70009A68802109060A439A600B4B9B68002BF6
:100D8000FBDB094A916801230B439360064B1B6808
:100D9000DB07FBD5044A916804230B43936010BD25
:100DA00000100240000400480024014010B5FFF785
:100DB000FFFEFFF75BFFFFF7B9FF10BD10B5314B2A
:100DC0001B78002B09D1304B1B88304A12885B00FE
:100DD0009B1A9BB22E4A138008E02B4B1B882B4A90
:100DE00012885B00D3189BB2294A1380294A1388C2
:100DF00026490888C3189BB21380274A138809889C
:100E0000CB189BB21380254B1B78214A12882449AA
:100E100008885343C3189BB20B800B881BB2214A2E
:100E2000934202DD01320A8007E01D4B1B881BB292
:100E3000002B02DC00221A4B1A801B4B1878144B33
:100E40001B88174A12885843101800B2401180B20C
:100E500003B2632B02DC002B03DC01E0642000E022
:100E60000020C4B22000FFF7F3FE104B1C70104BA3
:100E70001B685B0704D50E4B1B6CDBB20D4A13706D
:100E800010BDC0464B00002036000020340000207A
:100E900050000020520000203800002021000020D7
:100EA000480000207F0C000020000020540000209B
:100EB000002401404000002010B5094A536A094946
:100EC0008C4663449BB208490B80084B5362FFF782
:100ED00075FF074A138A01218B43138210BDC04658
:100EE000000400400180FFFF34000020FF7F00006D
:100EF00000100040002243088B4274D303098B4248
:100F00005FD3030A8B4244D3030B8B4228D3030CD9
:100F10008B420DD3FF22090212BA030C8B4202D37B
:100F20001212090265D0030B8B4219D300E0090AA3
:100F3000C30B8B4201D3CB03C01A5241830B8B42AC
:100F400001D38B03C01A5241430B8B4201D34B0395
:100F5000C01A5241030B8B4201D30B03C01A5241FA
:100F6000C30A8B4201D3CB02C01A5241830A8B427F
:100F700001D38B02C01A5241430A8B4201D34B0268
:100F8000C01A5241030A8B4201D30B02C01A5241CC
:100F9000CDD2C3098B4201D3CB01C01A5241830980
:100FA0008B4201D38B01C01A524143098B4201D3BA
:100FB0004B01C01A524103098B4201D30B01C01AE5
:100FC0005241C3088B4201D3CB00C01A524183085F
:100FD0008B4201D38B00C01A524143088B4201D38C
:100FE0004B00C01A5241411A00D2014652411046EC
:100FF0007047FFE701B5002000F006F802BDC046CB
:101000000029F7D076E770477047C0462E2E2F7321
:10101000797374656D2F7372632F73746D333266D9
:10102000302D7374647065726970682F73746D33DA
:1010300032663078785F75736172742E63000000D9
:10104000785634122C000020000000000000000040
:10105000000000000102030406070809006CDC021E
:081060000101FFFF32547698F4
:04000005080000C52A
:00000001FF
