:020000040800F2
:1000000000200020DD010008E5010008E9010008EA
:1000100000000000000000000000000000000000E0
:1000200000000000000000000000000005020008C1
:100030000000000000000000090200089904000808
:100040001502000815020008150200081502000834
:100050001502000815020008150200081502000824
:100060001502000815020008150200081502000814
:100070001502000815020008150200081502000804
:1000800015020008490A00080000000015020008D7
:1000900015020008150200081502000815020008E4
:1000A00015020008150200081502000815020008D4
:1000B0001502000800000000150200080000000002
:1000C0005FF808F130B583B000F0C4F8314B324A24
:1000D0001360324A1360324B324A03E011681960F0
:1000E0000433043230498B42F8D32B4B1A682F4B20
:1000F0009A4204D1294B1A682D4B9A4200D0FEE750
:10010000244B2C4A13602C4A13602C4B02E0002233
:100110001A6004332A4A9342F9D3264B1B68002BFA
:1001200003D1254B1B68002B00D0FEE700F096F8AA
:10013000694601A800F086F8224C234B1C1BA41032
:10014000002504E0AA001F4BD35898470135AC4264
:10015000F8DC1E4C1E4B1C1BA410002504E0AA005A
:100160001A4BD35898470135AC42F8DC00990198F6
:1001700000F0F6F90500174C174B1C1BA41004E007
:10018000013CA200134BD3589847002CF8DC280000
:1001900000F056F8BABADECA0000002024000020A1
:1001A000000000209C0B0008280000207856341224
:1001B00032547698280000205400002028000020A7
:1001C00058000020400200084002000840020008D9
:1001D00040020008400200084002000810B5FFF786
:1001E00071FFC04600BEFEE704207146084202D0FF
:1001F000EFF3098001E0EFF308807146044A1047ED
:1002000000BEFEE700BEFEE700BEFEE7704700004E
:080210000102000800BEFEE738
:100218009C0B000800000020280000209C0B000810
:100228000000000000000000280000205800002006
:080238000000000000000000BE
:10024000FEE7C04601230360014B0B607047C046C8
:100250000400002010B500F05DF810BD10B500F0EE
:100260008BF810BD82B0002301930093264A1368D7
:10027000802149020B431360234B1A6880239B02A1
:1002800013400093019B01330193009B002B04D189
:10029000019AA023DB019A42EED11B4B1B689B0302
:1002A00002D50123009301E000230093009B012B62
:1002B00028D11122154B1A60134B5A685A605A689C
:1002C0005A605968124A0A405A605A68882149039C
:1002D0000A435A601A68802149040A431A600A4B8B
:1002E0001B689B01FBD5084B5A6803218A435A605F
:1002F000596802220A435A60034B5B680C22134080
:10030000082BF9D102B070470010024000200240D3
:10031000FF7FC0FF10B5124B1A6801210A431A6013
:100320005868104A02405A6018680F4A02401A6022
:1003300018680E4A02401A6058680D4A02405A6016
:10034000DA6A0F208243DA62186B0A4A02401A63A3
:100350005A6B8A435A6300229A60FFF783FF10BDED
:10036000001002400CB8FF08FFFFF6FEFFFFFBFF86
:10037000FFFFC0FFACFEFFFF10B51F4B5B680C22F8
:100380001340042B07D0082B09D0002B23D11B4A84
:100390001B4B1A6022E0194A194B1A601EE0164BDB
:1003A0005C685A68A40C0F2004400234C0235B022E
:1003B0001A4204D113484443114B1C600EE00E4B0B
:1003C000DB6A0F21194001310C4800F05BFB44430C
:1003D0000B4B1C6002E0094A094B1A60064B5B6834
:1003E0001B090F221340084AD35CDBB2044A116890
:1003F000D940116010BDC0460010024000127A00C2
:100400001C00002000093D000C00002010B5134B1B
:100410001868FA21890000F035FB0138104B98422A
:100420000DD8104A506010490B6A1B021B0AC020ED
:10043000000603430B6200239360073313600A4AEC
:10044000136A1B021B0A8021C9050B431362002398
:10045000064A1360064A136010BDC0461C00002007
:10046000FFFFFF0010E000E000ED00E0380000209A
:1004700034000020044B186000E030BF024B1B68C2
:10048000002BFAD17047C04638000020014B18609D
:100490007047C0463400002010B5074B1B68002B86
:1004A00003D0054A1368013B1360044B1B68002B03
:1004B00000D0984710BDC04638000020340000200E
:1004C000074A13685B0013609023DB051B8ADB0778
:1004D00003D5116801230B431360014B1B68704760
:1004E000440000200D4A5369802109030B435361E6
:1004F0000B4B1A68A021C9020A431A609988094A5D
:10050000114099809868084908409860D86801406F
:10051000D960998A0A409A827047C046001002400A
:1005200000080048FFFCFFFFFFFFF0FF0A4A536985
:10053000802189020B4353619022D2051368032165
:100540008B431360054B9A688A439A60D9680222EC
:100550000A43DA607047C0460010024000080048B5
:1005600010B50022144B1A60FFF750FFFFF7BAFFD7
:10057000FFF7DCFF1148FFF789FF00F0DFF9902358
:10058000DB051B8ADB0704D50021C820800100F0B1
:100590001DF800220A4B1A800A4A918A80239B0088
:1005A0004B4093828023DB055A6A074B1A608020F8
:1005B000FFF760FFE3E7C04644000020C1040008E5
:1005C0003E000020000800483000002070B5040004
:1005D0000D000026554B1E80FA204000FFF74AFF11
:1005E000534B1E80EDB2534B1D701B78002B0DD169
:1005F000514A918A10230B439BB29382938A202104
:100600008B4393827822494B1A800CE04A4A938AA2
:1006100010218B439382918A20230B439BB29382B8
:100620007822424B1A80E20F1219521092B2002126
:10063000424B1980424B19701EE03E4B1B78002B39
:1006400011D13E4B1B8811B21BB2994202DC3C21F6
:10065000364B1980364B1B881BB29C420CDC0121A7
:10066000374B197008E0324B1B881BB25B42A34228
:1006700002DB0121324B1970314B1B78002BDCD08F
:1006800000222A4B1A80FA208000FFF7F3FE294B44
:100690001B78002B13D10122264B1A70264DAB8AF2
:1006A0000F329343AB820120FFF7E4FEAA8A202396
:1006B00013439BB2AB8214221C4B1A8012E000221F
:1006C0001C4B1A701C4DAA8A102313439BB2AB8299
:1006D0000120FFF7CFFEAB8A20229343AB820C3A76
:1006E000124B1A800022164B1A7015E0114B1B7822
:1006F000012B08D10E4B1B881BB29C420CDB012244
:100700000F4B1A7008E00A4B1B881BB25B42A342D6
:1007100002DC01220A4B1A70094B1B78012BE5D130
:100720000023034A1380014A138070BD3E0000205D
:10073000500000204D00002000080048400000202C
:100740004C00002010B5244A5369802189020B43D4
:1007500053619023DB0519688020800001431960F4
:10076000196A8020C002014319625369802109037C
:100770000B435361194B19688020400001431960F5
:1007800019688024E400214319609C8A10212143C8
:1007900089B29982998A2024A1439982D36903431B
:1007A000D3610F4B0020188018831884198B68229E
:1007B0000A4392B21A83198C0122114389B2198417
:1007C000012119859621C900D962586319880A4305
:1007D00092B21A8010BDC0460010024000080048C6
:1007E0000020004010B5642806D8044CE36A584342
:1007F000642100F047F9606310BDC046002000404E
:1008000010B525494B698022120313434B61234BDA
:100810001A688020800102431A601A68802424022A
:1008200022431A60CA6902231343CB611C4B002286
:100830001A831A841A811A80188B0222FF3202430B
:100840001A8318890322024392B21A81154ADA6286
:10085000154A5A6218880122104380B21880C8696C
:1008600010230343CB61114B2F2119851049D96205
:100870009989114389B2998119880A4392B21A80E1
:100880000C4980239B020B60C42080000B580A4A4D
:10089000134023430B5010BD0010024000080048D5
:1008A00000040040FFFF0000FF7F00000010004038
:1008B0007C92000000E100E0FF00FFFF10B51C4B40
:1008C0005A698021C9020A435A61996980208000CF
:1008D00001439961174A14680321214311609A6901
:1008E00002439A61144B0021D960DA6880208001AC
:1008F0000243DA609A6A8020400002439A6299605B
:100900009A68802109060A439A600B4B9B68002B6A
:10091000FBDB094A916801230B439360064B1B687C
:10092000DB07FBD5044A916804230B43936010BD99
:1009300000100240000400480024014010B5FFF7F9
:1009400001FFFFF75DFFFFF7B9FF10BD10B5314B99
:100950001B78002B09D1304B1B88304A12885B0072
:100960009B1A9BB22E4A138008E02B4B1B882B4A04
:1009700012885B00D3189BB2294A1380294A138836
:1009800026490888C3189BB21380274A1388098810
:10099000CB189BB21380254B1B78214A128824491F
:1009A00008885343C3189BB20B800B881BB2214AA3
:1009B000934202DD01320A8007E01D4B1B881BB207
:1009C000002B02DC00221A4B1A801B4B1878144BA8
:1009D0001B88174A12885843101800B2401180B281
:1009E00003B2632B02DC002B03DC01E0642000E097
:1009F0000020C4B22000FFF7F5FE104B1C70104B16
:100A00001B685B0704D50E4B1B6CDBB20D4A1370E1
:100A100010BDC0464D0000203E0000203C000020DC
:100A20004E00002050000020400000202100002047
:100A30004A0000207F0C000020000020520000200F
:100A4000002401404800002010B5094A536A0949B2
:100A50008C4663449BB208490B80084B5362FFF7F6
:100A600075FF074A138A01218B43138210BDC046CC
:100A7000000400400180FFFF3C000020FF7F0000D9
:100A800000100040002243088B4274D303098B42BC
:100A90005FD3030A8B4244D3030B8B4228D3030C4E
:100AA0008B420DD3FF22090212BA030C8B4202D3F0
:100AB0001212090265D0030B8B4219D300E0090A18
:100AC000C30B8B4201D3CB03C01A5241830B8B4221
:100AD00001D38B03C01A5241430B8B4201D34B030A
:100AE000C01A5241030B8B4201D30B03C01A52416F
:100AF000C30A8B4201D3CB02C01A5241830A8B42F4
:100B000001D38B02C01A5241430A8B4201D34B02DC
:100B1000C01A5241030A8B4201D30B02C01A524140
:100B2000CDD2C3098B4201D3CB01C01A52418309F4
:100B30008B4201D38B01C01A524143098B4201D32E
:100B40004B01C01A524103098B4201D30B01C01A59
:100B50005241C3088B4201D3CB00C01A52418308D3
:100B60008B4201D38B00C01A524143088B4201D300
:100B70004B00C01A5241411A00D201465241104660
:100B80007047FFE701B5002000F006F802BDC0463F
:0C0B90000029F7D076E770477047C04698
:100B9C00785634122C0000200000000000000000E9
:100BAC00000000000102030406070809006CDC02C7
:080BBC000101FFFF325476989D
:04000005080000C52A
:00000001FF
