:020000040800F2
:1000000000200020DD010008E5010008E9010008EA
:1000100000000000000000000000000000000000E0
:1000200000000000000000000000000005020008C1
:100030000000000000000000090200083D08000860
:100040001502000815020008150200081502000834
:100050001502000815020008150200081502000824
:100060001502000815020008150200081502000814
:100070001502000815020008150200081502000804
:1000800015020008B50C0008000000001502000869
:1000900015020008150200081502000815020008E4
:1000A00015020008150200081502000815020008D4
:1000B000F106000800000000150200080000000022
:1000C0005FF808F130B583B000F0A8F9314B324A3F
:1000D0001360324A1360324B324A03E011681960F0
:1000E0000433043230498B42F8D32B4B1A682F4B20
:1000F0009A4204D1294B1A682D4B9A4200D0FEE750
:10010000244B2C4A13602C4A13602C4B02E0002233
:100110001A6004332A4A9342F9D3264B1B68002BFA
:1001200003D1254B1B68002B00D0FEE700F07AF9C5
:10013000694601A800F066F9224C234B1C1BA41051
:10014000002504E0AA001F4BD35898470135AC4264
:10015000F8DC1E4C1E4B1C1BA410002504E0AA005A
:100160001A4BD35898470135AC42F8DC00990198F6
:1001700000F0C8FB0500174C174B1C1BA41004E033
:10018000013CA200134BD3589847002CF8DC280000
:1001900000F032F9BABADECA0000002024000020C4
:1001A000000000204010000828000020785634127B
:1001B00032547698280000206C000020280000208F
:1001C00070000020400200084002000840020008C1
:1001D00040020008400200084002000810B5FFF786
:1001E00071FFC04600BEFEE704207146084202D0FF
:1001F000EFF3098001E0EFF308807146044A1047ED
:1002000000BEFEE700BEFEE700BEFEE7704700004E
:080210000102000800BEFEE738
:1002180040100008000000202800002040100008BE
:1002280000000000000000002800002070000020EE
:080238000000000000000000BE
:1002400070B505000C000D4B98420CD00C4B984239
:1002500009D00C4B984206D00B4B984203D00B4967
:100260000B4800F0D7F80B4B9C4203D90A490848C9
:1002700000F0D0F8E405E40D2C8570BD0038014095
:100280000044004000480040004C0040950300003E
:10029000DC0F0008FF0100009603000010B5041EEB
:1002A000094B9C420CD0094B984209D0084B98420C
:1002B00006D0084B984203D00749084800F0AAF836
:1002C000A08CC005C00D10BD0038014000440040A6
:1002D00000480040004C0040A6030000DC0F00086E
:1002E00070B505000C00304B98420CD02F4B984253
:1002F00009D02F4B984206D02E4B984203D02E495E
:100300002E4800F087F884235B009C422AD02C4BB7
:100310009C4227D02B4B9C4224D02B4B9C4221D07B
:100320002A4B9C421ED02A4B9C421BD0294B9C42FC
:1003300018D0294B9C4215D0284B9C4212D0284BF8
:100340009C420FD0274B9C420CD0274B9C4209D09B
:10035000264B9C4206D0264B9C4203D02549174889
:1003600000F058F82112FF23194023401A000123FE
:100370009340012902D12A68134006E0022902D1E4
:100380006A68134001E0AA681340240C0122A240CD
:10039000E9690A40002B03D0002A03D1002002E0C3
:1003A000002000E0012070BD003801400044004002
:1003B00000480040004C0040E6070000DC0F000849
:1003C00007010700060106000501050004010400FD
:1003D000060208000A0309000003030000030200EC
:1003E000000301001A010B001B010C000E0111009B
:1003F00016031400E7070000FEE7C04610B5012011
:10040000FFF7FAFF01230360014B0B607047C04602
:100410000400002010B5FFF7F1FFC04610B500F052
:100420005DF810BD10B500F08BF810BD82B0002350
:1004300001930093264A1368802149020B431360FD
:10044000234B1A6880239B0213400093019B0133C6
:100450000193009B002B04D1019AA023DB019A4257
:10046000EED11B4B1B689B0302D50123009301E0D7
:1004700000230093009B012B28D11122154B1A60F9
:10048000134B5A685A605A685A605968124A0A40AF
:100490005A605A68882149030A435A601A688021C1
:1004A00049040A431A600A4B1B689B01FBD5084BA1
:1004B0005A6803218A435A60596802220A435A60E3
:1004C000034B5B680C221340082BF9D102B0704734
:1004D0000010024000200240FF7FC0FF10B5124B09
:1004E0001A6801210A431A605868104A02405A608B
:1004F00018680F4A02401A6018680E4A02401A60D3
:1005000058680D4A02405A60DA6A0F208243DA6264
:10051000186B0A4A02401A635A6B8A435A630022D4
:100520009A60FFF783FF10BD001002400CB8FF086F
:10053000FFFFF6FEFFFFFBFFFFFFC0FFACFEFFFF6C
:1005400010B51F4B5B680C221340042B07D0082BFF
:1005500009D0002B23D11B4A1B4B1A6022E0194AF9
:10056000194B1A601EE0164B5C685A68A40C0F20E9
:1005700004400234C0235B021A4204D113484443AE
:10058000114B1C600EE00E4BDB6A0F21194001314C
:100590000C4800F0ADFB44430B4B1C6002E0094AE1
:1005A000094B1A60064B5B681B090F221340084A6F
:1005B000D35CDBB2044A1168D940116010BDC0465B
:1005C0000010024000127A001C00002000093D00CB
:1005D0000C00002000220B4B1A600B4B5A69802143
:1005E000C9020A435A61996901220A439A61074B79
:1005F0001968074A0A401A60DA68AA2109020A4300
:10060000DA607047400000200010024000040048FB
:10061000FF00FFFF70B501000025234B1D60234B39
:1006200058698024A40220435861DA692243DA61C0
:100630001F4C25609023DB051A688020800502434B
:100640001A601A688020000602431A605A6A8020E5
:10065000400402435A625A6A8026760532435A623F
:10066000226820231343236022680423134323605A
:100670002268082313432360236801352B4323603A
:100680000C4B186800F034FB80B2A0810A4B1E604E
:10069000C72080001A58FF218A437F390A431A5025
:1006A000064B1D6070BDC046640000200010024073
:1006B000004400401C00002000E100E05C0000203D
:1006C00010B581B20348FFF7BBFD024BDB695B0647
:1006D000FBD510BD0044004070B505000024285D26
:1006E000FFF7EEFF01342B5D002BF8D170BDC04643
:1006F00070B526492648FFF7F3FD002844D0254C65
:1007000025782348FFF7CAFD234B58552378032B40
:1007100005D12249888A8022920042408A82032B96
:100720001CD101E0013300E00023032BFADD1A4B5A
:100730001B78012B12D0022B10D0032B07D1184BA2
:100740001B68002B0AD11748FFF7C6FF06E0042BF1
:1007500004D1033B144A1360114A13600D4B1B78FC
:10076000032B0ED10122114B1A70002303E000214C
:10077000094AD1540133032BF9DD0022054B1A70CD
:1007800002E00133034A137070BDC0460501050045
:10079000004400402D0000205400002000080048C4
:1007A0005C00002010100008640000202E000020D3
:1007B00010B5134B1868FA21890000F099FA013836
:1007C000104B98420DD8104A506010490B6A1B021A
:1007D0001B0AC020000603430B620023936007330B
:1007E00013600A4A136A1B021B0A8021C9050B43C6
:1007F00013620023064A1360064A136010BDC04608
:100800001C000020FFFFFF0010E000E000ED00E012
:100810004800002038000020044B186000E030BF82
:10082000024B1B68002BFAD17047C04648000020DD
:10083000014B18607047C0463800002010B5074BC8
:100840001B68002B03D0054A1368013B1360044B5F
:100850001B68002B00D0984710BDC0464800002000
:1008600038000020074A13685B0013609023DB0503
:100870001B8ADB0703D5116801230B431360014B6F
:100880001B687047680000200D4A536980210903E6
:100890000B4353610B4B1A68A021C9020A431A602B
:1008A0009988094A114099809868084908409860D9
:1008B000D8680140D960998A0A409A827047C04638
:1008C0000010024000080048FFFCFFFFFFFFF0FFA0
:1008D0000A4A5369802189020B4353619022D20551
:1008E000136803218B431360054B9A688A439A600F
:1008F000D96802220A43DA607047C04600100240FD
:100900000008004810B50022114B1A60FFF750FF95
:10091000FFF7BAFFFFF7DCFF0E48FFF789FFFFF78D
:1009200059FE00F01FF996208001FFF773FE0A4B75
:1009300000221A6009490A601B68094A918A8023CB
:100940005B004B4093828020FFF766FFEFE7C046D5
:100950006800002065080008640000205C0000209A
:1009600000080048244A5369802189020B435361DF
:100970009023DB0519688020800001431960196A03
:100980008020C002014319625369802109030B438F
:1009900053611A4B19688020C0030143196019681C
:1009A0008020400401431960988A80210901014395
:1009B0009982988A124901409982D369802149001D
:1009C0000B43D3610F4B0020188018831884198BB8
:1009D00068220A4392B21A83198C0122114389B208
:1009E0001984012119859621C900D9625863198893
:1009F0000A4392B21A807047001002400008004873
:100A0000FFEFFFFF0020004010B5642806D8044C1B
:100A1000E36A5843642100F06BF9606310BDC0467F
:100A20000020004026494B698022120313434B618A
:100A3000244B1A688020800102431A601A688020C3
:100A4000000202431A60CA6902231343CB611E4BA2
:100A500000221A831A841A811A80188B0222FF320C
:100A600002431A8318890322024392B21A81174A59
:100A7000DA62174A5A6218880122104380B218803D
:100A8000C86910230343CB61124B2F2119851249EA
:100A9000D9629989114389B2998119880A4392B21E
:100AA0001A800E4A80239B021360C421890050588B
:100AB0000B4B03408020C001034353507047C04696
:100AC000001002400008004800040040FFFF000042
:100AD000FF7F0000001000407C92000000E100E079
:100AE000FF00FFFF10B51C4B5A698021C9020A4361
:100AF0005A6199698020800001439961174A1468FE
:100B00000321214311609A6902439A61144B002129
:100B1000D960DA68802080010243DA609A6A802016
:100B2000400002439A6299609A68802109060A434C
:100B30009A600B4B9B68002BFBDB094A91680123F1
:100B40000B439360064B1B68DB07FBD5044A916897
:100B500004230B43936010BD0010024000040048C2
:100B60000024014010B50022044B1A80FFF7FAFE62
:100B7000FFF758FFFFF7B6FF10BDC0463200002058
:100B800010B53E4B1B78002B09D13D4B1B883D4ACD
:100B900012885B009B1A9BB23B4A138008E0384BDB
:100BA0001B88384A12885B00D3189BB2364A1380E0
:100BB000364A138833490888C3189BB21380344AD5
:100BC00013880888C3189BB21380324A1388098897
:100BD000CB189BB2138013881BB2002B06DA138844
:100BE000C82189018C4663449BB21380294C20881C
:100BF00000B2C821890100F0EBF989B22180264BAF
:100C00001B78214A1288254908885343C3189BB290
:100C10000B800B881BB2224A934202DD01320A800C
:100C200007E01E4B1B881BB2002B02DC00221B4B73
:100C30001A801C4B1878144B1B88184A128858438A
:100C4000101800B2401180B203B2632B02DC002BFB
:100C500003DC01E0642000E00020C4B22000FFF7C4
:100C6000D3FE114B1C70114B1B685B0704D50F4B57
:100C70001B6CDBB20E4A137010BDC046470000204B
:100C800034000020300000204C0000204E000020E6
:100C90003600002032000020210000204400002007
:100CA0007F0C0000200000205000002000240140A4
:100CB0003C00002010B5094A536A09498C46634438
:100CC0009BB208490B80084B5362FFF759FF074A54
:100CD000138A01218B43138210BDC04600040040DB
:100CE0000180FFFF30000020FF7F00000010004067
:100CF000002243088B4274D303098B425FD3030A5B
:100D00008B4244D3030B8B4228D3030C8B420DD36D
:100D1000FF22090212BA030C8B4202D312120902FB
:100D200065D0030B8B4219D300E0090AC30B8B4239
:100D300001D3CB03C01A5241830B8B4201D38B03E7
:100D4000C01A5241430B8B4201D34B03C01A52418C
:100D5000030B8B4201D30B03C01A5241C30A8B42CF
:100D600001D3CB02C01A5241830A8B4201D38B02BA
:100D7000C01A5241430A8B4201D34B02C01A52415E
:100D8000030A8B4201D30B02C01A5241CDD2C309D0
:100D90008B4201D3CB01C01A524183098B4201D34C
:100DA0008B01C01A524143098B4201D34B01C01A37
:100DB000524103098B4201D30B01C01A5241C308AF
:100DC0008B4201D3CB00C01A524183088B4201D31E
:100DD0008B00C01A524143088B4201D34B00C01A0A
:100DE0005241411A00D20146524110467047FFE776
:100DF00001B5002000F0F0F802BDC0460029F7D090
:100E000076E7704703460B437FD4002243088B42AA
:100E100074D303098B425FD3030A8B4244D3030B81
:100E20008B4228D3030C8B420DD3FF22090212BA46
:100E3000030C8B4202D31212090265D0030B8B42C2
:100E400019D300E0090AC30B8B4201D3CB03C01AAC
:100E50005241830B8B4201D38B03C01A5241430B87
:100E60008B4201D34B03C01A5241030B8B4201D377
:100E70000B03C01A5241C30A8B4201D3CB02C01AE2
:100E80005241830A8B4201D38B02C01A5241430A5A
:100E90008B4201D34B02C01A5241030A8B4201D349
:100EA0000B02C01A5241CDD2C3098B4201D3CB01F0
:100EB000C01A524183098B4201D38B01C01A52419F
:100EC00043098B4201D34B01C01A524103098B42A3
:100ED00001D30B01C01A5241C3088B4201D3CB008E
:100EE000C01A524183088B4201D38B00C01A524171
:100EF00043088B4201D34B00C01A5241411A00D221
:100F000001465241104670475DE0CA0F00D0494289
:100F1000031000D34042534000229C4603098B42F9
:100F20002DD3030A8B4212D3FC22890112BA030A81
:100F30008B420CD3890192118B4208D38901921103
:100F40008B4204D389013AD0921100E08909C30988
:100F50008B4201D3CB01C01A524183098B4201D38A
:100F60008B01C01A524143098B4201D34B01C01A75
:100F7000524103098B4201D30B01C01A5241C308ED
:100F80008B4201D3CB00C01A524183088B4201D35C
:100F90008B00C01A5241D9D243088B4201D34B0077
:100FA000C01A5241411A00D20146634652415B10B9
:100FB000104601D34042002B00D54942704763469A
:100FC0005B1000D3404201B5002000F005F802BDDF
:100FD0000029F8D016E770477047C0462E2E2F73B1
:100FE000797374656D2F7372632F73746D3332660A
:100FF000302D7374647065726970682F73746D330B
:1010000032663078785F75736172742E6300000009
:1010100048656C6C6F2066726F6D206D6F76652011
:101020006D6F746F720A00004F4B7365746E616D63
:10103000650000004F4B73657450494E000000007E
:10104000785634122C000020000000000000000040
:10105000000000000102030406070809006CDC021E
:081060000101FFFF32547698F4
:04000005080000C52A
:00000001FF
