:020000040800F2
:1000000000200020DD010008E5010008E9010008EA
:1000100000000000000000000000000000000000E0
:1000200000000000000000000000000005020008C1
:10003000000000000000000009020008650B000835
:100040001502000815020008150200081502000834
:100050001502000815020008150200081502000824
:100060001502000815020008150200081502000814
:100070001502000815020008150200081502000804
:1000800015020008D913000800000000150200083E
:1000900015020008150200081502000815020008E4
:1000A00015020008150200081502000815020008D4
:1000B000D108000800000000150200080000000040
:1000C0005FF808F130B583B000F0A8F9314B324A3F
:1000D0001360324A1360324B324A03E011681960F0
:1000E0000433043230498B42F8D32B4B1A682F4B20
:1000F0009A4204D1294B1A682D4B9A4200D0FEE750
:10010000244B2C4A13602C4A13602C4B02E0002233
:100110001A6004332A4A9342F9D3264B1B68002BFA
:1001200003D1254B1B68002B00D0FEE700F07AF9C5
:10013000694601A800F066F9224C234B1C1BA41051
:10014000002504E0AA001F4BD35898470135AC4264
:10015000F8DC1E4C1E4B1C1BA410002504E0AA005A
:100160001A4BD35898470135AC42F8DC00990198F6
:1001700000F05CFD0500174C174B1C1BA41004E09D
:10018000013CA200134BD3589847002CF8DC280000
:1001900000F032F9BABADECA0000002024000020C4
:1001A0000000002034170008280000207856341280
:1001B0003254769828000020880000202800002073
:1001C0008C000020400200084002000840020008A5
:1001D00040020008400200084002000810B5FFF786
:1001E00071FFC04600BEFEE704207146084202D0FF
:1001F000EFF3098001E0EFF308807146044A1047ED
:1002000000BEFEE700BEFEE700BEFEE7704700004E
:080210000102000800BEFEE738
:1002180034170008000000202800002034170008C8
:100228000000000000000000280000208C000020D2
:080238000000000000000000BE
:1002400070B505000C000D4B98420CD00C4B984239
:1002500009D00C4B984206D00B4B984203D00B4967
:100260000B4800F0D7F80B4B9C4203D90A490848C9
:1002700000F0D0F8E405E40D2C8570BD0038014095
:100280000044004000480040004C0040950300003E
:1002900000170008FF0100009603000010B5041EBF
:1002A000094B9C420CD0094B984209D0084B98420C
:1002B00006D0084B984203D00749084800F0AAF836
:1002C000A08CC005C00D10BD0038014000440040A6
:1002D00000480040004C0040A60300000017000842
:1002E00070B505000C00304B98420CD02F4B984253
:1002F00009D02F4B984206D02E4B984203D02E495E
:100300002E4800F087F884235B009C422AD02C4BB7
:100310009C4227D02B4B9C4224D02B4B9C4221D07B
:100320002A4B9C421ED02A4B9C421BD0294B9C42FC
:1003300018D0294B9C4215D0284B9C4212D0284BF8
:100340009C420FD0274B9C420CD0274B9C4209D09B
:10035000264B9C4206D0264B9C4203D02549174889
:1003600000F058F82112FF23194023401A000123FE
:100370009340012902D12A68134006E0022902D1E4
:100380006A68134001E0AA681340240C0122A240CD
:10039000E9690A40002B03D0002A03D1002002E0C3
:1003A000002000E0012070BD003801400044004002
:1003B00000480040004C0040E6070000001700081D
:1003C00007010700060106000501050004010400FD
:1003D000060208000A0309000003030000030200EC
:1003E000000301001A010B001B010C000E0111009B
:1003F00016031400E7070000FEE7C04610B5012011
:10040000FFF7FAFF01230360014B0B607047C04602
:100410000400002010B5FFF7F1FFC04610B500F052
:100420005DF810BD10B500F08BF810BD82B0002350
:1004300001930093264A1368802149020B431360FD
:10044000234B1A6880239B0213400093019B0133C6
:100450000193009B002B04D1019AA023DB019A4257
:10046000EED11B4B1B689B0302D50123009301E0D7
:1004700000230093009B012B28D11122154B1A60F9
:10048000134B5A685A605A685A605968124A0A40AF
:100490005A605A68882149030A435A601A688021C1
:1004A00049040A431A600A4B1B689B01FBD5084BA1
:1004B0005A6803218A435A60596802220A435A60E3
:1004C000034B5B680C221340082BF9D102B0704734
:1004D0000010024000200240FF7FC0FF10B5124B09
:1004E0001A6801210A431A605868104A02405A608B
:1004F00018680F4A02401A6018680E4A02401A60D3
:1005000058680D4A02405A60DA6A0F208243DA6264
:10051000186B0A4A02401A635A6B8A435A630022D4
:100520009A60FFF783FF10BD001002400CB8FF086F
:10053000FFFFF6FEFFFFFBFFFFFFC0FFACFEFFFF6C
:1005400010B51F4B5B680C221340042B07D0082BFF
:1005500009D0002B23D11B4A1B4B1A6022E0194AF9
:10056000194B1A601EE0164B5C685A68A40C0F20E9
:1005700004400234C0235B021A4204D113484443AE
:10058000114B1C600EE00E4BDB6A0F21194001314C
:100590000C4800F03FFF44430B4B1C6002E0094A4B
:1005A000094B1A60064B5B681B090F221340084A6F
:1005B000D35CDBB2044A1168D940116010BDC0465B
:1005C0000010024000127A001C00002000093D00CB
:1005D0000C00002000220B4B1A600B4B5A69802143
:1005E000C9020A435A61996901220A439A61074B79
:1005F0001968074A0A401A60DA68AA2109020A4300
:10060000DA607047400000200010024000040048FB
:10061000FF00FFFF10B50A48018A0909028A520942
:10062000038A9B09008AC409012001404900024055
:100630000A435200034013435B002040184310BD9F
:100640000004004870B582B057490B8A1B09012489
:1006500023400A8A52092240088A80092040098AD8
:10066000C9092140514DAE8A8024A4007440AC8257
:1006700002256C462570FF246E467470B470F470C9
:10068000357100247471002B06D0002A04D0002894
:1006900002D0002900D085E0002B0FD0002A0DD019
:1006A000072000F017FDC822D200414B1A6000203D
:1006B00000F0E2F8684600F0FFF873E0002A0FD07F
:1006C00000280DD0052000F005FD96225201384B80
:1006D0001A60002000F0D0F8684600F0EDF861E004
:1006E00000290FD000280DD0032000F0F3FCFA22DF
:1006F00052012F4B1A60002000F0BEF8684600F04F
:10070000DBF84FE000290FD0002B0DD0012000F0C6
:10071000E1FCAF229201264B1A60002000F0ACF8F9
:10072000684600F0C9F83DE0002B0CD0002000F036
:10073000D1FC00221E4B1A60002000F09DF8684694
:1007400000F0BAF82EE0002A0DD0062000F0C2FC1E
:10075000C8221201164B1A60002000F08DF868467E
:1007600000F0AAF81EE000280DD0042000F0B2FC32
:10077000C82252010E4B1A60002000F07DF8684636
:1007800000F09AF80EE000290CD0022000F0A2FC44
:1007900096229201064B1A60002000F06DF8684620
:1007A00000F08AF802B070BD00040048000800485C
:1007B0004000002070B501000020274B1860274B37
:1007C00018600122264B1A60264B5D698026B6020E
:1007D00035435D61DC693443DC61234C2060902348
:1007E000DB051D688026B60535431D601D68802029
:1007F000000605431D60D8683043D860586A8025DC
:100800006D0428435862586A80256D052843586254
:1008100020682023034323602068042303432360CC
:10082000206808230343236023681A4322600F4B88
:10083000186800F0EFFD80B2A0810D490D600D4BEE
:100840001A78C724A4000859FF2398439201134043
:1008500003430B5170BDC0465400002048000020E7
:100860005800002000100240004400401C000020FE
:1008700000E100E020000020012805D10123064A04
:100880001360064A136006E0002804D10023024AE0
:100890001360024A13607047540000204800002093
:1008A00010B581B20348FFF7CBFC024BDB695B0656
:1008B000FBD510BD0044004070B505000024285D44
:1008C000FFF7EEFF01342B5D002BF8D170BDC04661
:1008D00070B584B0802149058023754AD15075498F
:1008E0007548FFF7FDFC002800D1DEE0734C257849
:1008F0007148FFF7D3FC724B58552378042B00D076
:10090000B9E0704A918AFD33FF334B4093826C4BC0
:100910001B78012B2FD1FFF77DFE6B4A13881BB28A
:100920001B129BB2DCB2128892B2D1B2012601AD89
:100930002E70002803D1FF2501A8457001E001AD0C
:100940006870002C03D1FF2001AB987001E001A872
:100950008370002905D101ABFF22DA70FD3A1A71CC
:1009600003E001ABDA7001221A7101A80023437180
:10097000FFF7A2FF7FE0022B08D10023534A136048
:10098000534A13600020FFF777FF74E0032B1CD15C
:100990004F4B1B68002B0BD1494A50780223D3568A
:1009A000FF210B4000021843D17800B200F0E4F9B7
:1009B00001A802220270FF2343708370C37002718A
:1009C00000234371FFF778FF55E0042B03D101208A
:1009D000FFF752FF4FE0052B0BD13D4B1B68002B5F
:1009E00049D1374B5878C82845D8997800F052F942
:1009F00041E0062B1DD1364B1B68002B3BD1304B01
:100A00009B78012B02D100F099FB05E0002B03D16C
:100A10002B4B587800F05EFB01A802220270FF23E6
:100A200043708370C370027100234371FFF744FF6A
:100A300021E0072B02D100F091F91CE0082B1AD11C
:100A4000234B1B68002B16D1214B1B68002B0CD1AC
:100A50001B4948780223CB56FF221340000218435B
:100A60000B79FE3A1A40C97802E0002100220020EA
:100A700000B200F075FA114B1B78032B03D900224A
:100A80000E4B1A7002E001330C4A137008498023A0
:100A90005B050B600F4B1A78C724A4000859FF238D
:100AA00098439201134003430B5104B070BDC046FC
:100AB00000E100E005010500004400402D00002099
:100AC0006000002000080048320000205400002090
:100AD000480000202000002010B5134B1868FA21B0
:100AE000890000F097FC0138104B98420DD8104A4D
:100AF000506010490B6A1B021B0AC020000603430A
:100B00000B6200239360073313600A4A136A1B02C7
:100B10001B0A8021C9050B4313620023064A136098
:100B2000064A136010BDC0461C000020FFFFFF00F6
:100B300010E000E000ED00E04C0000203800002054
:100B4000044B186000E030BF024B1B68002BFAD149
:100B50007047C0464C000020014B18607047C046EB
:100B60003800002010B5074B1B68002B03D0054A46
:100B70001368013B1360044B1B68002B00D098479F
:100B800010BDC0464C00002038000020074A136802
:100B90005B0013609023DB051B8ADB0703D511681C
:100BA00001230B431360014B1B6870478400002036
:100BB0000D4A5369802109030B4353610B4B1A689B
:100BC000A021C9020A431A609988094A11409980F4
:100BD0009868084908409860D8680140D960998AA7
:100BE0000A409A827047C046001002400008004840
:100BF000FFFCFFFFFFFFF0FF0A4A536980218902D3
:100C00000B4353619022D205136803218B43136079
:100C1000054B9A688A439A60D96802220A43DA60CF
:100C20007047C046001002400008004810B500227E
:100C3000134B1A60FFF750FFFFF7BAFFFFF7DCFF17
:100C40001048FFF789FFFFF7C5FC00F01DFBE1200E
:100C50004002FFF7AFFD0C4B1B68012B05D10B4B7E
:100C60001B68002B01D0FFF7EDFC094A918A802315
:100C70005B004B4093828020FFF762FFEBE7C046AA
:100C8000840000208D0B0008540000205800002034
:100C90000008004810B500290AD10E4B9C8A80221A
:100CA000120122439A829C8A0B4A22409A8209E0CE
:100CB000084B9C8A094A22409A829C8A80225201CF
:100CC00022439A82C9B2064B197080B2054B188034
:100CD00010BDC04600080048FFEFFFFFFFF7FFFF11
:100CE0004700002034000020C8235B01984203DD48
:100CF000C8220E4B1A8018E080B20D4BC3189BB26D
:100D00000C4A934203D86422084B1A800DE00A4B28
:100D10009C46604480B2094B984203D83222034B70
:100D20001A8002E01422014B1A8070473400002020
:100D30007FF3FFFF7F0C0000BFF9FFFF3F060000BD
:100D4000054B998A802212010A439A82998A80224D
:100D500052010A439A8270470008004810B5054ABC
:100D60001388002111801BB2312B01DCFFF7E8FF53
:100D700010BDC0463400002070B504000023704A46
:100D80001380704A1380C9B26F4B19701B78002B07
:100D90000AD16E4B998A802212010A439A82998A5B
:100DA0006B4A0A409A8209E0684B998A694A0A406C
:100DB0009A82998A802252010A439A822000FFF780
:100DC00093FFE30F1B195B109BB20021624A118055
:100DD000624A117056E05C4A1278002A28D15E4AB5
:100DE000128819B212B2914219DC554A128812B215
:100DF0001E2A0EDD0021584A11801BB25B109BB2E7
:100E00004F490A8812B2D00F8218521092B20A804B
:100E100005E00021504A11801431494A1180494AA5
:100E2000128812B294422DDC01214C4A117029E043
:100E3000494A128812B2524219B28A4219DB404A18
:100E4000128812B21E2A0EDD0021434A11801BB205
:100E5000DA0FD3185B109BB239490A8812B25210CC
:100E600092B20A8005E000213B4A11801431344AD5
:100E70001180344A128812B25242A24202DB01218E
:100E8000364A1170354A1278002AA4D000222C4B21
:100E90001A80FFF755FFFA204000FFF751FE2A4B5A
:100EA0001B78002B13D10122274B1A70274DAA8AD9
:100EB000284B1340AB820120FFF742FEAA8A802311
:100EC0005B011343AB8205221D4B1A8012E0002206
:100ED0001D4B1A701D4DAA8A80231B011343AB8240
:100EE0000120FFF72DFEAA8A194B1340AB82052281
:100EF000134B1A800022194B1A7015E0124B1B7805
:100F0000012B08D10F4B1B881BB29C420CDB01222A
:100F1000124B1A7008E00B4B1B881BB25B42A342BA
:100F200002DC01220D4B1A700C4B1B78012BE5D112
:100F30000023044A1380024A1380FFF701FF70BDAB
:100F4000340000205C00002047000020000800481A
:100F5000FFEFFFFFFFF7FFFF3600002046000020F5
:100F600010B50023244C2380244C2380D2B2244B80
:100F70001A701B78002B0AD1224B9C8A8022120106
:100F800022439A829C8A204A22409A8209E01D4B81
:100F90009C8A1E4A22409A829C8A802252012243C5
:100FA0009A82C82903D9C822134B1A8002E089B259
:100FB000114B19800022164B1A7015E0104B1B784C
:100FC000002B08D10D4B1B881BB283420CDB012286
:100FD0000F4B1A7008E0094B1B881BB25B4283421F
:100FE00002DB01220A4B1A70094B1B78002BE5D05B
:100FF000FFF7A6FE10BDC046340000205C000020B4
:101000004700002000080048FFEFFFFFFFF7FFFF49
:1010100046000020244A5369802189020B43536112
:101020009023DB0519688020800001431960196A4C
:101030008020C002014319625369802109030B43D8
:1010400053611A4B19688020C00301431960196865
:101050008020400401431960988A802109010143DE
:101060009982988A124901409982D3698021490066
:101070000B43D3610F4B0020188018831884198B01
:1010800068220A4392B21A83198C0122114389B251
:101090001984012119859621C900D96258631988DC
:1010A0000A4392B21A8070470010024000080048BC
:1010B000FFEFFFFF0020004010B5642806D8044C65
:1010C000E36A5843642100F0A5F9606310BDC0468F
:1010D0000020004010B5C823DB0043439BB2154AF3
:1010E0001288072825D8134A128819B212B29142E1
:1010F0000ADD104C228810B20B000F49CA1A821860
:10110000208800B21B1A09E00A490A8812B21BB2F1
:10111000D21A098808B20849091A5B189A4204DDF4
:1011200018B20021FFF728FE03E010B20121FFF7FB
:1011300023FE10BD32000020FF31000010B500205A
:10114000FFF7C8FF10BDC04626494B698022120335
:1011500013434B61244B1A688020800102431A60BC
:101160001A688020000202431A60CA6902231343EE
:10117000CB611E4B00221A831A841A811A80188BA5
:101180000222FF3202431A8318890322024392B2D9
:101190001A81174ADA62174A5A62188801221043E4
:1011A00080B21880C86910230343CB61124B2F21F2
:1011B00019851249D9629989114389B2998119888F
:1011C0000A4392B21A800E4A80239B021360C42104
:1011D000890050580B4B03408020C00103435350FB
:1011E0007047C0460010024000080048000400405C
:1011F000FFFF0000FF7F0000001000407C92000015
:1012000000E100E0FF00FFFF10B51C4B5A69802190
:10121000C9020A435A61996980208000014399619B
:10122000174A14680321214311609A6902439A61A5
:10123000144B0021D960DA68802080010243DA6013
:101240009A6A8020400002439A6299609A688021DD
:1012500009060A439A600B4B9B68002BFBDB094A8B
:10126000916801230B439360064B1B68DB07FBD59A
:10127000044A916804230B43936010BD00100240A0
:10128000000400480024014010B50022044B1A80DD
:10129000FFF7C0FEFFF758FFFFF7B6FF10BDC046CF
:1012A0003200002010B53E4B1B78002B09D13D4B7E
:1012B0001B883D4A12885B009B1A9BB23B4A1380F5
:1012C00008E0384B1B88384A12885B00D3189BB261
:1012D000364A1380364A138833490888C3189BB2AC
:1012E0001380344A13880888C3189BB21380324A8B
:1012F00013880988CB189BB2138013881BB2002B6C
:1013000006DA1388C82189018C4663449BB2138096
:10131000294C208800B2C821890100F0EBF989B27C
:101320002180264B1B78214A12882549088853437F
:10133000C3189BB20B800B881BB2224A934202DD7A
:1013400001320A8007E01E4B1B881BB2002B02DC17
:1013500000221B4B1A801C4B1878144B1B88184A10
:1013600012885843101800B2401180B203B2632BA8
:1013700002DC002B03DC01E0642000E00020C4B2AA
:101380002000FFF799FE114B1C70114B1B685B0787
:1013900004D50F4B1B6CDBB20E4A137010BDC04658
:1013A00047000020340000203000002050000020C2
:1013B0005C000020360000203200002022000020C7
:1013C000440000207F0C0000210000205E0000206F
:1013D000002401403C00002010B5094A536A094925
:1013E0008C4663449BB208490B80084B5362FFF75D
:1013F00059FF074A138A01218B43138210BDC0464F
:10140000000400400180FFFF30000020FF7F00004B
:1014100000100040002243088B4274D303098B4222
:101420005FD3030A8B4244D3030B8B4228D3030CB4
:101430008B420DD3FF22090212BA030C8B4202D356
:101440001212090265D0030B8B4219D300E0090A7E
:10145000C30B8B4201D3CB03C01A5241830B8B4287
:1014600001D38B03C01A5241430B8B4201D34B0370
:10147000C01A5241030B8B4201D30B03C01A5241D5
:10148000C30A8B4201D3CB02C01A5241830A8B425A
:1014900001D38B02C01A5241430A8B4201D34B0243
:1014A000C01A5241030A8B4201D30B02C01A5241A7
:1014B000CDD2C3098B4201D3CB01C01A524183095B
:1014C0008B4201D38B01C01A524143098B4201D395
:1014D0004B01C01A524103098B4201D30B01C01AC0
:1014E0005241C3088B4201D3CB00C01A524183083A
:1014F0008B4201D38B00C01A524143088B4201D367
:101500004B00C01A5241411A00D2014652411046C6
:101510007047FFE701B5002000F0F0F802BDC046BB
:101520000029F7D076E7704703460B437FD40022AB
:1015300043088B4274D303098B425FD3030A8B4267
:1015400044D3030B8B4228D3030C8B420DD3FF22D1
:10155000090212BA030C8B4202D31212090265D09F
:10156000030B8B4219D300E0090AC30B8B4201D352
:10157000CB03C01A5241830B8B4201D38B03C01A99
:101580005241430B8B4201D34B03C01A5241030B10
:101590008B4201D30B03C01A5241C30A8B4201D3C1
:1015A000CB02C01A5241830A8B4201D38B02C01A6C
:1015B0005241430A8B4201D34B02C01A5241030AE3
:1015C0008B4201D30B02C01A5241CDD2C3098B42C8
:1015D00001D3CB01C01A524183098B4201D38B0145
:1015E000C01A524143098B4201D34B01C01A5241E8
:1015F00003098B4201D30B01C01A5241C3088B422D
:1016000001D3CB00C01A524183088B4201D38B0017
:10161000C01A524143088B4201D34B00C01A5241B9
:10162000411A00D201465241104670475DE0CA0F90
:1016300000D04942031000D34042534000229C4650
:1016400003098B422DD3030A8B4212D3FC2289015A
:1016500012BA030A8B420CD3890192118B4208D330
:10166000890192118B4204D389013AD0921100E092
:101670008909C3098B4201D3CB01C01A52418309A6
:101680008B4201D38B01C01A524143098B4201D3D3
:101690004B01C01A524103098B4201D30B01C01AFE
:1016A0005241C3088B4201D3CB00C01A5241830878
:1016B0008B4201D38B00C01A5241D9D243088B42CE
:1016C00001D34B00C01A5241411A00D20146634671
:1016D00052415B10104601D34042002B00D54942D5
:1016E000704763465B1000D3404201B5002000F014
:1016F00005F802BD0029F8D016E770477047C046CC
:101700002E2E2F73797374656D2F7372632F73741C
:101710006D333266302D7374647065726970682F32
:1017200073746D3332663078785F75736172742EBE
:041730006300000052
:10173400785634122C000020000000000000000045
:10174400000000000102030406070809006CDC0223
:08175400020101FF32547698F6
:04000005080000C52A
:00000001FF
